:020000040000FA
:10000000C0390020ED010000F5010000F7010000FB
:1000100000000000000000000000000000000000E0
:1000200000000000000000000000000007020000C7
:100030000000000000000000090200000B020000A8
:100040000D0200000D0200000D0200000D02000074
:100050000D0200000D0200000D0200000D02000064
:10006000252600000D0200000D0200000D02000018
:100070000D0200000D0200000D0200000D02000044
:100080000D0200000D0200000D0200000D02000034
:100090000D0200000D0200000D0200000D02000024
:1000A0000D0200000D0200000D0200000D02000014
:1000B0000D0200000D0200000D0200000D02000004
:1000C0000D0200000D0200000D0200007121000071
:1000D0000D0200000D020000F90F00000D020000EB
:1000E0000D0200000D0200000D0200000D020000D4
:1000F0000D0200000D0200000D0200000D020000C4
:100100000D0200000D0200000D0200000D020000B3
:100110000D0200000D0200000D0200000D020000A3
:100120000D0200000D0200000D0200000D02000093
:100130000D0200000D0200000D0200000D02000083
:100140000D0200000D0200000D0200000D02000073
:100150000D0200000D0200000D0200000D02000063
:100160000D0200000D0200000D0200000D02000053
:100170000D0200000D0200000D0200000D02000043
:100180000D0200000D0200000D0200000D02000033
:100190000D0200000D0200000D0200000D02000023
:1001A0000D0200000D0200000D0200000D02000013
:1001B0000D0200000D0200000D0200000D02000003
:1001C0000D0200000D0200000D0200000D020000F3
:1001D0000D0200000D0200000348854600F0BAFA47
:1001E00000480047E95C0000C03900200C48804707
:1001F0000C480047FEE77046EFF30881EFF30982F1
:10020000094B98470047FEE7FEE7FEE7FEE70000E0
:10021000ABBE064B7446984720477046F047000037
:10022000D51F0000D901000011160000291B000095
:10023000F0B51FB40646002082B005464024019167
:1002400000901BE0019922460F46304600F073F8FB
:10025000049A059B801A994110D3104619462246EC
:1002600000F059F8361A8F410197224601200021EB
:10027000009F00F050F838184D4100902046641E51
:100280000028DFDC019B00982946324607B0F0BD0C
:1002900001464139192900D820307047D2B201E017
:1002A0000270401C491EFBD270470022F6E710B5D1
:1002B00013460A4604461946FFF7F0FF204610BDD4
:1002C000421C0178401C0029FBD1801A704710B5F0
:1002D000002200E0521C835C8C5CA34201D1002B05
:1002E000F8D1D8B2E1B2401A10BD03460A780270C4
:1002F000401C491C002AF9D11846704770B50646C3
:1003000008F094FB046805460A220021304600F0FC
:1003100023F82C6070BD10B5202A04DB0146203A7A
:100320009140002010BD914020239C1A0346E340D9
:100330001943904010BD10B5202A04DB0846203A2E
:10034000D040002110BD0B46D340D0402024A21A3B
:1003500091400843194610BDF7B5009C0F46002692
:100360002578641C002D05D000F03EFA0068405D41
:10037000C007F5D12B2D02D02D2D18D0641E394683
:100380002046029A00F034FA002F04D03968A142C6
:1003900001D1009939607105022400290BDA40422D
:1003A000002803DD08F042FB0460A007FEBD012029
:1003B00080020643E3E70028F8DA08F037FB046020
:1003C0000048FEBDFFFFFF7FF0B5074608465840D6
:1003D00087B0C00F049048000E46590040084908F5
:1003E000BC1A884105D2384631461E4617460B4690
:1003F00002465800400810434CD0300D0390400591
:100400005900400D490D0590401A0290402872DABB
:1004100018030121000B090508430190049800927C
:10042000002805D001995242002088410092019095
:10043000029840210A1A01990098FFF76CFF0546BF
:100440000C466B4607CB00F0BCF9C0197141039A0A
:100450000E0D0023D71756401A467A40164344D053
:10046000049A002A2DD0029A012A039A15DC12055B
:10047000C01A914101263605001C7141D20F059E1C
:10048000D2070093019202962A46234600F010FA02
:1004900007B0F0BD38463146FAE71605224A0F4646
:1004A000B218C01AB74101210905001C4F410018BC
:1004B0007F41114618187941E20F10436D196441CC
:1004C00013E0E2076D0815436408C2071443039A5A
:1004D00001261205C01A91413605001C7141CE0754
:1004E000400830434908C01851412A46234600F0CD
:1004F000D2F9CDE7FFE7049801224000C117121A94
:1005000000238B4104983146C417381AA141EEE705
:1005100030B40124E407634030BC55E730B4012413
:10052000E407614030BC4FE70000E0FFF0B51FB4C6
:1005300088B00B990998002448400999C00F4900D8
:1005400049080991C0070B990090490049080B918F
:1005500009990898A64608431CD00B990A980843A5
:1005600018D0099801244000420D4800410D099817
:1005700024050003000B204309900B980003000B97
:1005800020430B9050181C4940180022019014463B
:10059000104605E0002001460DB0F0BD032801DA49
:1005A000034600E003239C46C11A0AAE0AE05F003E
:1005B00008ADED5B4F00F75B7D430027AA187C4137
:1005C000491C5B1E6145F2DD410004AB5A52210417
:1005D000120C0A43240C401C0828DFDB019802900F
:1005E0000099704601910090059B049A079906981E
:1005F00000F05EF9D0E700000DFCFFFFF0B50C46FF
:100600005C4085B0E40FE40703944C0000266408C6
:1006100059009446490802460296224321D0624678
:100620000A431ED06200570D4A000E032303550DE6
:10063000012402462C492405781B1B0B360B40185D
:1006400023432643614600901C46501AB44103D30D
:100650000098401C009002E0921800985B4100282E
:1006600003DA0020014605B0F0BD00200121090594
:100670000746864611E064461D46141BB54106D365
:100680006546521BB341744607430C43A646CD074B
:1006900040084908284392185B4105460D43EAD1BA
:1006A0001046184313D06046194650407140084325
:1006B00006D06046101AB34106D20122002306E09C
:1006C00000220123DB0702E00122D24353100098ED
:1006D00074460105381C6141029C039D0019694163
:1006E00000F0D9F8BFE70000FD0300004A0009034D
:1006F0000123090B1B0519430A4B10B5520D9A42F1
:1007000002DA0020014610BD064B34339A4203DC66
:100710009A1AFFF710FE10BD034BD218FFF7FBFD2E
:1007200010BD0000FF030000CDFBFFFF10B5002946
:1007300004DB0124E40740428C412146002B04DB0A
:100740001C460123DB075242A341994200D190424B
:1007500010BD00001CB509480090094801900546ED
:100760000126009C05E0E36807CC33430C3C984726
:100770001034AC42F7D3FFF733FD000008A60000A9
:1007800028A6000070B50446002903D000202022CE
:10079000012310E0002801D00020C043C046C0461D
:1007A0000DE02546D5408D4205D30D469540641B8E
:1007B0001D46954040191546521E002DF1DC21467C
:1007C00070BD10B5202A06DBCB170846203A104131
:1007D000C1170B4306E00B461341D0402024A21A58
:1007E00091400843194610BD004870478C930000A3
:1007F000F7B582B0029C00272078641C154601974B
:10080000302802D0002D15D015E020780127641C77
:10081000782804D0582802D0002D09D00BE0002DF4
:1008200001D0102D07D1002710252078641C02E08C
:10083000082500E00A250026009610E0009901270F
:1008400069430818020C294680B2714300908E1843
:100850003804864201D3012001902078641C294687
:1008600000F078F80028E9DA0398002805D0002F76
:1008700001D0641E00E0029C04600198002806D0AC
:1008800008F0D4F802210160C81E05B0F0BD00993F
:1008900030040843F9E710B5002B08DA0024401CA7
:1008A000614192185B411A4301D14008400010BDDC
:1008B000F0B51FB482B005460C0003D0084608F01E
:1008C0009DF802E008F09AF8203002460090214698
:1008D0002846FFF720FD049B059A04460F4618435F
:1008E0001143084314D0184610431BD000984021F0
:1008F0000A1A18460599FFF71EFD05460E46009A8E
:1009000005990498FFF707FD084305D0012004E08E
:100910002046394607B0F0BD0020C11705430E43FD
:100920002C43374300990E986305401A7905E40A71
:1009300000220C43FD0A0A3002D500200146E9E7F7
:100940000105101969410C9C0D9D00196941FFF7C3
:10095000A2FFDFE73A2800D23038202302469A432C
:10096000412A01D310463738884201D30020C043C2
:100970007047000083B0029000200190009002991F
:100980001F200140012088400190074800900298F4
:10099000800F8100009840180090019A0099086823
:1009A0001043086003B070470402004081B000901B
:1009B000009A034908681043086001B07047C046B8
:1009C00000020040B0B592B0504907A83CC93CC0F5
:1009D0003CC93CC0D24801904D4800680221084003
:1009E0000090D0480068069006A88078052108424B
:1009F00004D0FFE747490020086037E006A8807868
:100A00000007002803D5FFE7C748059002E0C64865
:100A10000590FFE706A880788007002804D5FFE747
:100A200005983C49086020E006A80088810B01A8D1
:100A30004018007802900698BC490840801C049039
:100A4000069843F600610840400A401C0390059850
:100A50008008049948434000039A02995143B0FB2F
:100A6000F1F080002B490860FFE7FFE7D3480068FA
:100A70000721084010901098012821D1FFE7009825
:100A800030B9FFE722490868022210430860FFE7F7
:100A9000214800680006002804D5FFE747F600500B
:100AA000119003E048F200001190FFE7009830B980
:100AB000FFE717490868022290430860FFE70EE04D
:100AC0001098022804D1FFE712480068119005E051
:100AD0001098810007A840581190FFE7FFE7E04811
:100AE00000680F210840401C0F9011980F99B0FB2F
:100AF000F1F1EB4801600168084A8918084AB1FB26
:100B0000F2F1084A1160006812B0B0BDFC9A000012
:100B100008020040100000200011044020A107003E
:100B200040420F000400002080B501F035FADC4897
:100B3000006880BD87B006900020059004901021C9
:100B40000391082102910421019100900698800AE6
:100B50000006A8B1FFE706A841880C2001406846BE
:100B60004058BF49401804900498006806998A0AC2
:100B7000D2B28905C90E8A401040C8400590FFE7EF
:100B8000059807B07047C04687B0069000200590D2
:100B900004900C21039108210291042101910090FD
:100BA00006982849884206D1FFE72A4800680121B3
:100BB0000840059043E006982349884207D1FFE7A3
:100BC00024480068022108404008059036E0069855
:100BD0001E49884208D1FFE71E48006840F2001114
:100BE0000840000A059028E006981949884208D173
:100BF000FFE71848006840F200210840400A0590CD
:100C00001AE006980001400FA8B1FFE70698810E90
:100C10000C200140684640589249401804900498BE
:100C2000006806990A01520FC901C90E8A40104096
:100C3000C8400590FFE7FFE7FFE7FFE7FFE70598FC
:100C400007B0704710000080110000801200008083
:100C5000130000801802004080B501F09DF9CD48D6
:100C600000680949096807221140C84080BDC04694
:100C700080B501F091F9C7480068034909687022FE
:100C800011400909C84080BD3402004087B00020EF
:100C900006902348009023480068059005A88078B6
:100CA0000521084203D0FFE70020069035E005A8A3
:100CB00080780007002803D5FFE71B48049002E076
:100CC00019480490FFE705A880788007002803D51D
:100CD000FFE7049806901FE005A80088810B68468E
:100CE000401800780190059810490840801C039036
:100CF000059843F600610840400A401C02900498A1
:100D00008008039948434000029A01995143B0FB7F
:100D1000F1F080000690FFE7FFE7069807B0704704
:100D20000102020440020040001BB700FF01000066
:100D300080B584B0039002915A48016810200140A8
:100D400001911D4A116804231943116000F08CF8C9
:100D5000444908680722104308601949086840F2AE
:100D60000012904308603E4908680F229043029A9F
:100D7000104308600398052809D1FFE71049086867
:100D800040F2031210430C2290430860FFE73549FC
:100D9000086807229043039A1043086001F0FCF8AA
:100DA000019830B9FFE704490868042290430860BD
:100DB000FFE704B080BDC0460002004010020040C2
:100DC0004CC000408DB00C900B910A92002009900D
:100DD00008900C21079108220692042105910490A5
:100DE000102303930292019100900C98800A000650
:100DF000B8B1FFE70CA841880C2001406846405874
:100E0000174940180890089800680C9A910AC9B2CE
:100E10009205D20E914088430A99084308990860C8
:100E2000FFE70C980001400FB8B1FFE70C98810E66
:100E30000C20014004A840580A494018099009981C
:100E400000680C9A1101490FD201D20E91408843DB
:100E50000B99084309990860FFE70DB07047C04639
:100E6000200200401002004083B002904948006810
:100E7000C008019001200090FFE70A48006802992D
:100E80000840884209D0FFE70198401E019018B938
:100E9000FFE70020009000E0EFE7009803B0704704
:100EA00018000020500200403F490868012290438A
:100EB0000860704785B003900291314900200860B6
:100EC00003A80088400528B9FFE702A8008840056C
:100ED00040B1FFE72A490120C04308600020C04319
:100EE000019046E027492D200860039826490860B4
:100EF00002982649086026490120086025480068B4
:100F000040000090FFE724480068C00768B1FFE791
:100F10000098411E0091002806DCFFE718490020D8
:100F2000C0430860049027E0EDE716490D200860F3
:100F300003981549086016490120086015480068A3
:100F400040000090FFE714480068C00768B1FFE761
:100F50000098411E0091002806DCFFE708490020A8
:100F6000C0430860049007E0EDE70848006801907E
:100F7000FFE701980490FFE7049805B07047C0466A
:100F8000B41300200CC0004004C0004008C0004062
:100F900010C000401800002040C00040024908680E
:100FA000012210430860704700C0004084B00390E5
:100FB0000291019200200090FFE700980F2818D8B6
:100FC000FFE702980099C840C00768B1FFE703989F
:100FD000006800994A00032191408843019991409B
:100FE000084303990860FFE7FFE70098401C009062
:100FF000E3E704B07047000080B582B00F48006896
:1010000001900F480068C00718B1FFE7012018B928
:1010100006E0012020B9FFE70C4800F019F80AE0CB
:101020000848006830B1FFE70648026801990648A1
:101030009047FFE7FFE702B080BDC0460C000840C4
:1010400014000840E02F0020DC13002000000840BE
:1010500081B000900099486901221043486101B0B5
:10106000704781B0009000990868802210430860A2
:1010700001B0704782B0019068460170007830B1CD
:10108000FFE70199486902221043486105E0019990
:101090004869022290434861FFE7019948690422A8
:1010A0001043486102B0704780B584B0039002914C
:1010B00003981449884204D1FFE7FFF7D9FD009057
:1010C00003E0FFF7C9FD0090FFE7009A0A210846F8
:1010D0005043029A9200B0FBF2F0401DB0FBF1F0D9
:1010E000401E019001980399086103990868402205
:1010F00010430860009801998900091DB0FBF1F0C8
:1011000004B080BD00100840F0B58FB00E900DA85F
:1011100001700AA901200870B94880680990FFE7AA
:101120000E98007B00B167E1B64841F220414018BB
:1011300008900E980CA9059103F02EFF05980078F1
:101140003A280FD1FFE70DA801784B00AF4A0021E4
:10115000D15202785300AF4AD1520278AA490120F5
:10116000885448E10DA80178A748405C00B940E1E7
:101170000CA80078252800D003E10DAA019213786D
:10118000A1490020C8541378442102910C465C43C5
:101190009F48039005195E009C4B9C5B6419641E7C
:1011A00027789C4C0494A55BED1BA55315780E463F
:1011B0006E4386196D005B5B9B199B1E1E78635BFB
:1011C0009B1B6353127851434018133006F032FDD5
:1011D000019B029A03990446049806941B785C00CC
:1011E000005B5A438A18114642314223D25C497847
:1011F0000902891888420CD0FFE70DA80078810009
:10120000F9484118086E401C08660AA901200870B8
:10121000B6E006980899C97888420CD0FFE70DA877
:1012200000788100F0484118886E401C88660AA941
:1012300001200870A3E00DA80078442141437448C0
:10124000405C41280DD1FFE7E7498122885C401CC2
:101250008854714940F22C10C8810AA900200870F6
:101260008CE00DA80078442141436948405C522835
:101270000DD1FFE7DC498022885C401C8854664918
:1012800040F22C1088810AA90020087075E0D64928
:101290008222885C401C88545F4A40F22C101082E5
:1012A00007AA00201080812288540BA90870FFE74C
:1012B0000BA80078042816D8FFE70DA80078442171
:1012C0004143534840180BA90A7880183521405CE7
:1012D00007A909888A1851498854FFE70B98401CD0
:1012E0000BA90870E4E70798401D07A908800BA91F
:1012F00000200870FFE70BA80078012816D8FFE748
:101300000DA8007844214143414840180BA90A78B0
:1013100080183A21405C07A909888A183F498854F7
:10132000FFE70B98401C0BA90870E4E70798801CA6
:1013300007A908800BA900200870FFE70BA8007818
:10134000052816D8FFE70DA800784421414330480E
:1013500040180BA90A7880183C21405C07A909882D
:101360008A182E498854FFE70B98401C0BA9087077
:10137000E4E70AA900200870FFE7FFE7FFE7FFE7BF
:101380002DE00BA9442008700DA8007842001F48EA
:10139000805A0978884210D1FFE70DA803781A4ACD
:1013A0000021D154007881008F484118086F401CFB
:1013B00008670AA90120087010E00C9A0DA80178AE
:1013C00044244C43124B1B194C0010490C5B1A551A
:1013D00000784200885A401C8852FFE7FFE70CA8BB
:1013E00003780DA8007842000A49885AC01888522C
:1013F00000E0FFE7FFE793E60AA800780FB0F0BD32
:1014000094310020AE140020520700204E07002027
:10141000081400204A0700203431002090140020D6
:1014200070B58EB00C900BA801706E4841F220414F
:10143000401808900C98007B00B9CAE00C983A213B
:1014400003F03FFE0C99002008816748C06F012817
:1014500005D1FFE70C98522103F033FE0FE06248FC
:10146000C06F022805D1FFE70C98412103F029FE47
:1014700004E00C98432103F024FEFFE7FFE70C98FB
:10148000242103F01EFE0C9858491122049203F007
:101490005DFE0898827856480590564907F09AFAFA
:1014A00005990C98042203F051FE0C980BA90978B9
:1014B0004A004D49069189181431022203F046FE74
:1014C000069800684C4E314603F010FA0598B27841
:1014D00073783178F47835797679039602950194AA
:1014E0000091464907F076FA049A05990C9803F0A2
:1014F0002DFE059806994A8C414907F06BFA05992B
:101500000C98052203F022FE06990C98183103224C
:10151000079203F01BFE0699079A0C981C3103F002
:1015200015FE09A900200870FFE709A80078042823
:101530000FD8FFE70C9809A90A782A498918334A75
:10154000895C03F0BEFDFFE70998401C09A90870FB
:10155000EBE709A900200870FFE709A80078012837
:101560000FD8FFE70C9809A90A781E498918264A5E
:10157000895C03F0A6FDFFE70998401C09A90870E3
:10158000EBE709A900200870FFE709A80078052803
:101590000FD8FFE70C9809A90A7812498918194A47
:1015A000895C03F08EFDFFE70998401C09A90870CB
:1015B000EBE70C9800890AA908800C98022203F036
:1015C000C5FD0C98252103F07CFD0DA900200870B5
:1015D00003E00DA901200870FFE70DA800780EB008
:1015E00070BDC046AE140020A8300020E4110020D9
:1015F00074300020E4A400004C310020A8A40000B6
:101600005D9D00000C1400000A1400000514000089
:1016100080B584B003900291019203A8007840063F
:1016200000280DD5FFE703A800784007002803D560
:10163000FFE70198009002E002980090FFE7FFE7C3
:101640001A4807F0B7F900980168194807F0B2F98D
:1016500000984168174807F0ADF90098816816486E
:1016600007F0A8F90098C168144807F0A3F900989A
:101670000169134807F09EF900984169114807F085
:1016800099F900988169104807F094F90098C169A8
:101690000E4807F08FF9FFE7009800680121084322
:1016A00008B1FFE7F8E7039804B080BD3C9B000059
:1016B0004B9B0000579B0000639B00006F9B00004A
:1016C000939B0000879B00007B9B00009F9B00007A
:1016D00080B5002000F048F800F0EEF980BD000071
:1016E00083B0034602A8038001AB198000920088F2
:1016F0007F2805DCFFE701A80088402801DBFFE721
:1017000030E0D848007928B1FFE7009841424841CD
:101710000090FFE70098012812D1FFE701A8028896
:10172000072110460840012383401A48016802A897
:101730000088D208D2018218885C1843885411E0CE
:1017400001A8028807211046084001238340F5487C
:10175000016802A80088D208D2018218885C9843E8
:101760008854FFE703B0704780B584B00390ED481C
:101770000068009003990191FF20029009B9019837
:1017800002900098029A40F20041FEF787FD04B0F3
:1017900080BDC0461400002082B001AA10806846B7
:1017A00001800198AF4908800098488002B07047D6
:1017B00080B584B003AB187002A8017001A8027054
:1017C00002986946087001984870FFE7224800783F
:1017D00008B1FFE7FAE720486946022204F044FA1C
:1017E0000A2006F08DFE04B080BDC04610B586B05C
:1017F00005AC207004A80170039202A8038004982D
:1018000014490870694600200870FFE768460078B0
:1018100002A9098888420DDAFFE70398694609782A
:10182000405C0C4A89184870FFE70098401C6946E4
:101830000870EBE70298401C82B20748054904F0A3
:1018400013FAFFE70448007808B1FFE7FAE706B0AB
:1018500010BDC046462F0020DC13002080B584B0A8
:1018600045480390FFE7039820B1FFE70398401E27
:101870000390F8E73D20019000210291AE22FFF78E
:1018800097FF01980299B022FFF792FF0198029901
:101890008122FFF78DFF01980299FF22FFF788FF51
:1018A00001980299A122FFF783FF01980299A622CD
:1018B000FFF77EFF01980299A822FFF779FF0198B0
:1018C00002993F22FFF774FF01980299AD22FFF7BA
:1018D0006FFF019802998B22FFF76AFF0198029926
:1018E0003222FFF765FF01980299C822FFF760FFD7
:1018F00001980299D322FFF75BFF0198029A1146E3
:10190000FFF756FF01980299D522FFF751FF019882
:1019100002998022FFF74CFF01980299D922FFF724
:1019200047FF019802991F22FFF742FF0198029991
:10193000DA22FFF73DFF019802991222FFF738FFE4
:1019400001980299DB22FFF733FF019802994022A8
:10195000FFF72EFF01980299AF22FFF729FF0298A7
:10196000FFF702FF00F0A8F802983E49088048807F
:101970000120487104B080BDC409000080B588B062
:1019800006AB1870059104923648008805990978CD
:1019900040187F2808DCFFE73248408805994978DD
:1019A0004018402804DBFFE707A90020087054E036
:1019B00000200390FFE7039805994978884242D2B6
:1019C000FFE70599486806AA1278203A49785143FA
:1019D000039A89184900405A029000200190FFE7BD
:1019E000019805990978884228D2FFE70298019961
:1019F0008840000400280DD5FFE71A490888019A9D
:101A000080184988039A8918049A80B289B2FFF72E
:101A100067FE0EE013490888019A80184988039AE6
:101A20008918049A53425A4180B289B2FFF758FE8E
:101A3000FFE7FFE70198401C0190D1E7FFE703981B
:101A4000401C0390B7E7059802780649088880187B
:101A50000880069807A90870FFE707A8007808B073
:101A600080BDC0465407002080B584B0029001912B
:101A70000092FFE702980078A0B1FFE70298007893
:101A80000199009AFFF77AFF02990978884205D0F8
:101A9000FFE70298007803A9087008E00298401C4C
:101AA0000290E7E70298007803A90870FFE703A80F
:101AB000007804B080BD000080B586B005A8039012
:101AC00005A900200870FFE705A80078072826DC94
:101AD000FFE703980068B030C2B23D2002900021B9
:101AE0000191FFF765FE019902980222FFF760FE5F
:101AF000019902981022FFF75BFE029809490968D4
:101B000005AA1278D2018A1840218023FFF76EFEC1
:101B1000FFE703980068401C05A90870D4E706B0E9
:101B200080BDC0461400002083B002900191009255
:101B3000002003B0704781B00090009988680922A6
:101B40009043886001B0704710B58AB00C9C099032
:101B50000891079206930020059000900999086E5D
:101B60000122904308660698202803D1FFE7002051
:101B70000690FFE7FEF7D8FF0390FFF76DF802909D
:101B8000FFF776F80190089800B143E10999002029
:101B900088600898069909020843079908430121BB
:101BA0000843099908600C980399884236D3FFE7E7
:101BB0000998C049884208D1FFE7C1490868202236
:101BC000104310229043086027E00998BA498842E0
:101BD00008D1FFE7BA4908688022104340229043A9
:101BE000086019E00998B54988420AD1FFE7B4496D
:101BF000086840F60042904340F6000280180860F2
:101C000009E0AF49086843F20002904342F2000243
:101C100080180860FFE7FFE7FFE7FFE70998A5499D
:101C2000884225D1FFE7AA48FEF7AEFF000118B9A8
:101C3000FFE7C14805901AE0A548FEF7A5FF00019F
:101C4000102804D1FFE7FFF721F805900EE0A04827
:101C5000FEF79AFF0001202804D1FFE7FFF708F8FC
:101C6000059002E0B4480590FFE7FFE7FFE782E058
:101C700009989149884225D1FFE79448FEF784FFEF
:101C8000800118B9FFE7AC4805901AE08F48FEF7CD
:101C90007BFF8001402804D1FFE7FEF7F7FF0590A6
:101CA0000EE08A48FEF770FF8001802804D1FFE72C
:101CB000FEF7D2FF059002E09F480590FFE7FFE79F
:101CC000FFE757E009987D49884229D1FFE77E4820
:101CD000FEF75AFF800218B9FFE7FA4805901EE0A8
:101CE0007948FEF751FF800240F20041884204D15A
:101CF000FFE7FEF7CBFF059010E07348FEF744FFC7
:101D0000800240F60001884204D1FFE7FEF7B0FFF1
:101D1000059002E0EB480590FFE7FFE7FFE728E0CA
:101D20006848FEF731FF000318B9FFE7E548059062
:101D30001EE06448FEF728FF000341F200018842DC
:101D400004D1FFE7FEF7A2FF059010E05D48FEF723
:101D50001BFF000342F20001884204D1FFE7FEF7B7
:101D60007BFF059002E0D7480590FFE7FFE7FFE71C
:101D7000FFE7FFE7FFE70C980399884206D3FFE7E8
:101D80000999002048600598009042E00C98059958
:101D9000884206D3FFE70999002048600598009023
:101DA00036E00C9848B9FFE7099948684A4A104359
:101DB00048600598400A009029E0059A0A210846E3
:101DC00050430C9AB0FBF2F0401DB0FBF1F0401E06
:101DD00004900498400A50B1FFE73F4A04920999E1
:101DE0004868104348600598400A00900EE0099842
:101DF00040683849084004990843099948600598A3
:101E00000499491CB0FBF1F00090FFE7FFE7FFE702
:101E1000FFE74CE00999002088600899069A1202B1
:101E20001143079A114301221143099A116009993C
:101E3000486009981F4988420AD1FFE7204908688D
:101E400020221043102290430860019800902DE05A
:101E50000998194988420AD1FFE719490868802280
:101E60001043402290430860029800901DE00998BA
:101E7000124988420CD1FFE71149086840F6004238
:101E8000904340F6000280180860019800900BE033
:101E90000B49086843F20002904342F200028018A6
:101EA000086002980090FFE7FFE7FFE7FFE7009870
:101EB0000AB010BD00100640002006400030064069
:101EC000180200400600C0A60F00A0660E00606663
:101ED0000D00406600FEFFFFFF01000083B002908E
:101EE00001910092029800697721090688430199BF
:101EF000090708430099090608430299086103B0DD
:101F00007047000081B06F480090FFE70B495920EF
:101F1000086016200860882008600098401E009025
:101F200008B9FFE705E0FFE7044800680028EDD0A6
:101F3000FFE701B07047C046001BB700000100403A
:101F400080B582B00190019800F002F802B080BD27
:101F500081B00090FFE70E4800680002002801D51C
:101F6000FFE7F8E7684600780A280CD1FFE709493F
:101F70000D200860FFE7064800680002002801D530
:101F8000FFE7F8E7FFE700980249086001B07047F3
:101F9000180007400000074080B5FEF777FE0849AB
:101FA0000860FEF70FFD014606480160006806491B
:101FB00040180649B0FBF1F00549086080BDC046F5
:101FC000100000201800002020A1070040420F0050
:101FD000040000200148024908607047000000002A
:101FE00008ED00E081B0009000990120886001B008
:101FF000704781B000900099086801225207104391
:10200000086001B070470000B0B58CB00B902D484F
:1020100009902D4901A83CC93CC03CC93CC00B9863
:102020002A49884205D1FFE72E48FEF7ADFD0A9008
:1020300023E00B982649884205D1FFE72848FEF7A0
:10204000A3FD0A9018E00B982249884205D1FFE7CA
:102050002248FEF799FD0A900DE00B98BF4988428F
:1020600005D1FFE71C48FEF78FFD0A9002E0002033
:102070000990FFE7FFE7FFE7FFE7099808B9FFE7E7
:102080001DE00A98022813D1FFE70B980F498842F8
:1020900005D0FFE70B980E49884204D1FFE7FEF711
:1020A000DBFD099003E0FEF7E3FD0990FFE705E0A3
:1020B0000A98810001A840580990FFE7FFE70998B6
:1020C0000CB0B0BD001BB7001C9B00000000054019
:1020D00000010540001005400500405F0400005F5E
:1020E0000300C05E0200805E80B586B0059004915A
:1020F00003920598FFF788FF02900020019000905E
:10210000039802994908884203D9FFE70220019009
:1021100012E002980399B0FBF1F0019001A8C07899
:102120000090009838B1FFE701980099491CB0FB76
:10213000F1F00190FFE7FFE7049800990843059943
:1021400008600198059948600298019A0099491C15
:102150005143B0FBF1F006B080BD81B00090009912
:102160000868012292071043086001B07047000020
:1021700080B584B0EFF3108072B603907748FFF714
:1021800031FF774805F08EFE7648019005F08AFE13
:1021900001981430029005F085FE734805F082FE28
:1021A000724805F0B6FE019805F0B3FE029805F0FE
:1021B000B0FE6F48006828B1FFE76D490868401E0F
:1021C0000860FFE76B48006840000221C8416A4987
:1021D000884204D8FFE7694901200860FFE76548A5
:1021E0000168674848430421C8416649884204D8C9
:1021F000FFE7624900200860FFE75E480168604829
:1022000048430321C841604988420AD8FFE75F4834
:10221000006828B1FFE75D490868401C0860FFE7D7
:10222000FFE7002038B9FFE7594805F0DFFB5948C0
:1022300005F0DCFBFFE75848006828B1FFE7564986
:102240000868401E0860FFE75448808828B1FFE70F
:1022500052498888401E8880FFE75048008828B18E
:10226000FFE74E490888401E0880FFE74B4840883A
:1022700028B1FFE749494888401E4880FFE74748A2
:10228000406928B1FFE745494869401E4861FFE7BA
:102290004248C08828B1FFE74049C888401EC8802E
:1022A000FFE73E48008928B1FFE73C490889401E06
:1022B0000881FFE73948408928B1FFE73749488955
:1022C000401E4881FFE73548808928B1FFE7334940
:1022D0008889401E8881FFE73048C08928B1FFE720
:1022E0002E49C889401EC881FFE72C48008A28B1C2
:1022F000FFE72A49088A401E0882FFE7284800783D
:1023000040B1FFE72448006820B9FFE72249642074
:10231000086018E02248007858B1FFE71E480068BE
:102320000A2806D1FFE71E49002008701A490860F4
:1023300008E01B48007820B9FFE717490020086033
:10234000FFE7FFE7FFE70B490868401C08601549F5
:102350000868401C086062B604B080BD00110540EA
:10236000583100206C310020A83100209431002029
:10237000BC31002030310020CCCCCC0CC448004013
:1023800052B81E859BC4200037894100A830002028
:102390003430002054300020CC1300203431002091
:1023A000DC1300208C12002080B590B00F900E91AD
:1023B00059490B9148F200000A90002009900891B9
:1023C00007900F9806905549884219D0FFE7069864
:1023D000534988421FD0FFE706985249884225D0CA
:1023E000FFE70698504988422BD0FFE706984F49EF
:1023F000884231D0FFE706984D49884237D041E006
:1024000051480590FEF7C0FB014605980D91FEF777
:1024100091FB0C9037E04B480490FEF7B5FB01466A
:1024200004980D91FEF786FB0C902CE04448039035
:10243000FEF7AAFB014603980D91FEF77BFB0C907B
:1024400021E03E480290FEF79FFB014602980D9165
:10245000FEF770FB0C9016E037480190FEF794FBF6
:10246000014601980D91FEF765FB0C900BE0314899
:102470000090FEF789FB014600980D91FEF75AFB8C
:102480000C9000E045E00F99002008630F990320AD
:10249000C8600F9988682D4A104088600D980128FF
:1024A00007D1FFE7FEF7F2FB0D998A0008A98850D3
:1024B000FFE70E9868B3FFE70D98810008A8405821
:1024C0000C99491CB0FBF1F00E994A088018B0FB3A
:1024D000F1F0801E079007A8408890B1FFE70D98A3
:1024E000810008A840580C99491CB0FBF1F00E99E6
:1024F000CA008018B0FBF1F00009801E0F994862F5
:1025000006E007980321090708430F994862FFE78F
:10251000FFE710B080BDC046001BB70000000740B9
:1025200000100740002007400030074000400740EF
:1025300000500740953DEC77143DCC77933CAC7749
:10254000123C8C77913DA057103D80570FFFF0FF54
:1025500086B0059004910392002000900290FFE75E
:1025600002980399884225D2FFE700200190FFE7F7
:1025700005988069400400280CD5FFE70198401CAD
:1025800001900198800F18B1FFE70120009001E051
:10259000FFE7EDE70098012801D1FFE70AE0059881
:1025A00000680499029A8854FFE7FFE70298401CEC
:1025B0000290D5E7029806B0704786B00590049166
:1025C0000392002000900290FFE70298039988424E
:1025D00025D0FFE700200190FFE705988069000201
:1025E00000280CD5FFE70198401C01900198800F4E
:1025F00018B1FFE70120009001E0FFE7EDE7009848
:10260000012801D1FFE70AE004980299405C05998E
:102610000860FFE7FFE70298401C0290D5E70298A8
:1026200006B0704718480068092804D8FFE7174922
:1026300017480860FFE71748006808210840C008ED
:1026400001280BD1FFE71349086808221043242210
:1026500090430860104901200870FFE70D480068AA
:1026600020210840400901280CD1FFE709490868EA
:10267000202210430C229043086003490868401C44
:102680000860FFE77047C046D413002008000440EC
:10269000A55A000000000440D813002081B000902B
:1026A000009800280FD4FFE700991F200A46024037
:1026B0000120904049098900104A8850BFF34F8F8C
:1026C000BFF36F8FFFE701B07047C04681B0009045
:1026D000009800280FD4FFE700991F200A46024007
:1026E0000120904049098900044A8850BFF34F8F68
:1026F000BFF36F8FFFE701B07047C04680E100E095
:1027000081B00090009800280BD4FFE700991F20AB
:102710000A4602400120904049098900204A885019
:10272000FFE701B07047C04681B0009000980028D4
:102730000BD4FFE700991F200A4602400120904079
:1027400049098900164A8850FFE701B07047C04622
:1027500081B00090009800280BD4FFE700991F205B
:102760000A46024001209040490989000C4A8850DD
:10277000FFE701B07047C04681B000900098002884
:102780000BD4FFE700991F200A4602400120904029
:1027900049098900024A8850FFE701B07047C046E6
:1027A00000E100E070B582B001900091019800282E
:1027B00014D4FFE701980321CB431840164A8058F0
:1027C00001998C07E50EFF24AC40A043009CA401B6
:1027D000E4B2AC4020431940885018E001980F241F
:1027E000204008380321CB4318400A4A80580199F9
:1027F0008D07EE0EFF25B540A843009DAD01EDB25B
:10280000B54028432140083919408850FFE702B0FD
:1028100070BDC0461CED00E000E400E070B58AB079
:1028200009900020059009982C2103F077FA069072
:1028300006984949FDF74BFD18B9FFE701200590BF
:10284000FFE706984549FDF742FD18B9FFE701206B
:102850000590FFE7059808B9FFE77AE000200290AD
:102860002C21019103F05AFA06900698FDF746FDD7
:102870000199024602980592059A64240394B2FBDA
:10288000F4F523466B43D21A07AB04935A71059AA9
:10289000B2FBF4F20592059AB2FBF4F625467543B5
:1028A000521B1A71059AB2FBF4F20592059ADA707E
:1028B00003F034FA019902460298069203F02EFAC8
:1028C000019902460298069203F028FA01990246FD
:1028D0000298069203F022FA0199024602980692A3
:1028E00003F01CFA019902460298069203F016FAC8
:1028F000019902460298069203F010FA01990246E5
:102900000298069203F00AFA06900698FDF7F6FC84
:10291000039A0146049805910599B1FBF2F4134618
:102920006343C91A81700599B1FBF2F105910599CC
:10293000B1FBF2F413466343C91A41700599B1FB28
:10294000F2F105910599017002F09EF804490860C2
:10295000FFE70AB070BDC046BF9C0000B89C0000F5
:10296000A830002070B592B005F030F98B48009087
:102970008B4964220A9202F0F3FA0A9A894801907C
:10298000894902F0EDFA0A9A88480390884902F0D2
:10299000E7FA0A9A874C8849204602F0E1FA0A9A37
:1029A00086480890864902F0DBFA0A9A85488649EB
:1029B00002F0D6FA0A9A85480290854902F0D0FAC8
:1029C0000A9A84480490844902F0CAFA0A9A834811
:1029D0000790834902F0C4FA0A9A82480990824912
:1029E00002F0BEFA00998148E1225502056041607B
:1029F00000210D9181600173417305F055F9019B30
:102A0000029A0D997A480560436082600173032140
:102A1000417305F049F9039B049A0D997548069096
:102A200040F2B04505950560436082600173022164
:102A30000C91417305F038F90598069B079A0D999A
:102A40005861184614309C61DA61017301211091BC
:102A5000417305F029F9089B099A0D99664842F2DD
:102A600080540460436082600173042111914173BA
:102A700005F01AF90A9A614E6149304602F070FA7F
:102A80000A9A604D6049284602F06AFA0A9A5F4C39
:102A90005F49204602F064FA0A9A5E480B905E494C
:102AA00002F05EFA0C990D9B109A5C480660456036
:102AB0000372C3608272417204F0C4FE0B9B0D9AD4
:102AC00010995748046043600272C260817241727B
:102AD00004F0B8FE53483D2101725349416002F0B1
:102AE000C3FF0C99109A5148FEF760FA0D9A5048AE
:102AF00040F20021FEF75AFA109A4E480E90114605
:102B0000FEF754FA0E98109A40F20011FEF74EFAB2
:102B1000109A49480F904021FEF748FA0F98109AF2
:102B20002021FEF743FA0F98109A1021FEF73EFA83
:102B300005F05AF8119A4149086810430860404965
:102B4000086809221043086005F066D93D4908600D
:102B50003D4802683D48026000680968884208D222
:102B6000FFE73848006839490968401A3849086061
:102B700003E0374900200860FFE73648016836481F
:102B800048433649086036490020086035490868DE
:102B900005221043086012B070BDC0469812002094
:102BA000000C0020E8120020900D0020AC12002044
:102BB000640C0020C0120020C80C0020101300205C
:102BC000580E002024130020200F00207413002032
:102BD000B010002038130020840F00204C13002078
:102BE000E80F00209C1300207811002058310020AD
:102BF000943100206C310020A831002060130020A7
:102C00004C100020D41200202C0D0020881300202E
:102C100014110020FC120020F40D0020343000209C
:102C200054300020DC13002000000840C040004069
:102C3000404000400040004040410040040200404D
:102C400000C00040BC13002028F00240C413002044
:102C5000C813002004000020E093040014E000E00A
:102C600018E000E010E000E080B58AB0C048C0780D
:102C7000C00708B9FFE779E1BD490020C870BD4829
:102C800041F2204141180991BB4940180890BB48C6
:102C90000078C00790B9FFE709988078B8490870B4
:102CA0000998C078B7490870099800784006800FE5
:102CB000B5490870B1490120087056E109980078BB
:102CC0004007C00F4142484104A9087009980078A4
:102CD0000007C00F4142484103A9087009980078D5
:102CE000C006C00F4142484102A9087004980399E8
:102CF00040180299401807A908709E4802790121DE
:102D00000A40A24BC35C0B40D21840F65053C35C40
:102D10000B40D21806AB1A709D4A805C084005A98A
:102D200008709C4800780190032800D91BE10199A4
:102D30008A0001A08018874600F0DBB800F0E6B8F2
:102D400000F0F1B800F000B807A8007801280CD80E
:102D5000FFE790490220087091490120087007A8F8
:102D60000178964805F026FEC2E0099800788007B1
:102D7000C00F68B1FFE787490220087088490870D2
:102D8000099800788007C10F8B4805F013FEAEE06C
:102D900009980078C00770B1FFE77E4902200870EB
:102DA0007F4903200870099801780120014081487B
:102DB00005F000FE9AE0F5482021405C68B9FFE785
:102DC000744902200870764904200870EF482021D9
:102DD000415C774805F0EEFD87E069480078099985
:102DE000897888420ED0FFE76A49022008706C4952
:102DF0000520087062480178099882786B4805F0D0
:102E0000D9FD71E05F4800780999C97888420ED0F1
:102E1000FFE76049022008706149062008705948A0
:102E200001780998C278604805F0C4FD5BE0564817
:102E30000078099909784906890F884210D0FFE780
:102E40005449022008705649072008704E480178FE
:102E5000099800784006820F524805F0ABFD41E02A
:102E600006A80078022809D3FFE74A490220087023
:102E700006A80178494805F09DFD32E007A80078D2
:102E8000022804D1FFE743490120087028E0BF4829
:102E90002021405C012806D0FFE7BC482021405C8F
:102EA000022804D1FFE73B490120087017E006A87B
:102EB0000078012804D8FFE73649012008700DE0AA
:102EC00005A80078012804D1FFE7324901200870E5
:102ED00003E0304900200870FFE7FFE7FFE7FFE766
:102EE000FFE7FFE7FFE7FFE7FFE7FFE7FFE7FFE7B2
:102EF0003AE0A549087840221043087008787F22FC
:102F0000104008702349032008702DE09E4908787E
:102F100040221043087008788022104308701D4931
:102F20000320087020E098490878BF2210400870FC
:102F300008788022104308701748007890B1FFE7A6
:102F4000154900200090087004F07CF800988F4923
:102F50008022885481228854822288540D4903207B
:102F60000870FFE700E0FFE7FFE7FFE70AB080BD7A
:102F700090120020AE140020171400002812002028
:102F80002A1200202B12002029120020AA0600007D
:102F9000F613000027000020CA2F0020089C000024
:102FA00094120020289C0000519C00007C9C000092
:102FB000E59B0000D59B0000C69B0000F59B000030
:102FC00010B584B003A908706D484078C00720B1DF
:102FD000FFE76C48407F08B1FFE7CEE0684900207A
:102FE0004870EC4A117801231943117002A9087046
:102FF000FFE702A8007802280BD8FFE702A80078B4
:10300000012105F05FFCFFE70298401C02A908704F
:10301000EFE7E0490878FE2210400870DA480C30EB
:1030200002F09EF940F2E83005F06AFA02A90020A9
:103030000870FFE702A8007802280AD8FFE702A874
:10304000007803F07BF9FFE70298401C02A90870A2
:10305000F0E703A80078A0BBFFE7CB48C0684C4965
:10306000C86302A900200870FFE702A800780228C0
:1030700026D8FFE701A900200870FFE701A8007823
:10308000032817D8FFE702A80178F34A4A43F34818
:10309000801801AA12788018807B05234B433C4995
:1030A000C91889182C228854FFE70198401C01A9EF
:1030B0000870E3E7FFE70298401C02A90870D4E714
:1030C0005AE003A80078012854D1FFE702A90020A4
:1030D0000870FFE702A8007802284AD8FFE702AA92
:1030E0001078DD490B464343DC48C4180023637164
:1030F000127851434018807C48B1FFE702A800785D
:10310000D5494143D548411801204871FFE701A93D
:1031100000200870FFE701A80078032823D8FFE704
:1031200002A8017805224A431948801801AA12789A
:1031300080182C23C05CC84B4B43C849C918891858
:10314000897B884209D0FFE702A80078C249414341
:10315000C248411801204871FFE7FFE70198401C71
:1031600001A90870D7E7FFE70298401C02A9087080
:10317000B0E700E0FFE7FFE7FFE704B010BDC0469F
:1031800090120020E42F002083120020A83000209D
:10319000E411002082B0B148784940180190002124
:1031A00077484056401C0090062800D9B9E00099A5
:1031B0008A0001A08018874600F00CB800F023B800
:1031C00000F02CB800F04BB800F067B800F070B811
:1031D00000F091B86F490878BF2210400870087855
:1031E0008022104308706748408958B9FFE7664954
:1031F0000120C86779228854614A0021117063490F
:103200000870FFE78DE0019800798009012804D15A
:10321000FFE75B4901200870FFE782E05A48802100
:10322000405C132806DCFFE757488121405C0A28F0
:1032300014DBFFE754490220C86779230122CA54EE
:103240004F4A107080220020885452490878BF23CA
:1032500018400870087810430870FFE761E04A489A
:103260008121405C092806DCFFE747488221405C59
:103270000A2811DBFFE74449792200208854822282
:10328000885481228854802288543D4B03221A702E
:103290003E4A1070C867FFE743E0394905200870CF
:1032A000394979220020885439490120087038E0D2
:1032B00035488021405C142809DBFFE7324A0220B0
:1032C000D06780230021D1542D490870FFE72E4894
:1032D0008121405C20B1FFE729490220087009E004
:1032E00029488221405C20B1FFE72549022008706F
:1032F000FFE7FFE715E02348408930B1FFE72248A8
:103300008021405C14280BDBFFE71F490120C867C0
:10331000792288541A4AFF2111701C490870FFE76E
:10332000FFE7019800798009012805D1FFE71549D9
:1033300040F2E830488100E0FFE71248C08928B930
:10334000FFE7114981220020885400E0FFE70D4883
:10335000008A28B9FFE70C4982220020885400E047
:10336000FFE70848808928B9FFE707498022002045
:10337000885400E0FFE702B07047C0460514000023
:103380002800002034310020A83000201C0000203C
:10339000CA2F00208312002084B0014603A80170C8
:1033A0002B4901910078032803D1FFE729480190B8
:1033B000FFE701982021405C18B3FFE703A80078DD
:1033C00025494143254841180120087102A90020E0
:1033D0000870FFE702A800780199097D88420CDA9D
:1033E000FFE70198816902A8027800208854FFE76E
:1033F0000298401C02A90870ECE769460120087099
:1034000022E003A8007814494143144841180020E1
:10341000087102A90870FFE702A800780199097DE8
:1034200088420DDAFFE70199086902AA1278805CE8
:1034300089698854FFE70298401C02A90870EBE7ED
:10344000694600200870FFE76846007804B07047BE
:10345000E42F00200C300020A6060000AE1400204F
:1034600010B584B067480078E0B1FFE76648674967
:10347000016000686649029108606648664905F087
:1034800099FA029800686549FCF721FF30B1FFE71F
:103490005F480168624805F08DFAFFE7594900204E
:1034A0000870FFE75F48406803A901F075FD08B1A7
:1034B000FFE7A5E003A8007808B9FFE7A0E003A8AC
:1034C0000078082805D0FFE703A800787F280DD1F1
:1034D000FFE75548007840B1FFE753490878401EA0
:1034E0000870554805F066FAFFE71DE003A8019053
:1034F0000078FCF7CDFE01460198017003994A4C13
:1035000023785A1C2270494AD15400780A2806D0E0
:10351000FFE703A80178474805F04CFA03E0444868
:1035200005F048FAFFE7FFE703A800780A280AD069
:10353000FFE703A800780D2805D0FFE73A48007898
:103540004C285DD3FFE738480078002851D0FFE7CA
:10355000364800780A2805D0FFE7344800780D285F
:103560001ED1FFE7314800780A2806D1FFE734482A
:1035700000780D2801D1FFE711E02648264905F023
:1035800019FAEA4800682549FCF7A1FE30B1FFE7C7
:10359000E6480168224805F00DFAFFE7FFE727E05B
:1035A0002148007821494018411E00200870FFE79B
:1035B0002248007808B1FFE7FAE7204901200870A7
:1035C0001A4800F091F81348134905F0F3F9D74869
:1035D00000681249FCF77BFE30B1FFE7D348016871
:1035E0000F4805F0E7F9FFE7144900200870FFE7EE
:1035F000FFE70D4900200870039811490870FFE7A4
:1036000004B010BD2A000020E01100201D000020A1
:10361000DC11002099A4000090A40000A4A40000E4
:103620008BA40000583100202C1200202D12002005
:1036300031A40000539D000032A4000000140020BB
:103640002B00002080B50020202102F067FB0146FE
:10365000F448016000681E49FCF739FE30B9FFE705
:103660001C49087801221043087030E0ED480068DA
:103670001949FCF72CFE30B9FFE7164908780222F9
:103680001043087022E0E74800681449FCF71FFE69
:1036900030B9FFE70F49087804221043087014E09E
:1036A000E04800680E49FCF712FE30B9FFE709490F
:1036B000087808221043087006E00A4805F07AF9F5
:1036C000DA490220087002E0FFE7FFE7FFE780BD6C
:1036D0009EA20000D0130020A3A20000A8A2000018
:1036E000CCA20000ADA2000010B586B0059004A9E0
:1036F0000020087003A90120087087480068029024
:103700000598202102F00AFB0146C64801600068C6
:103710008249FCF7DCFD00284BD1FFE704A900201B
:103720000870FFE704A8007803A90978884206DA40
:10373000FFE7FFE70498401C04A90870F2E7784807
:1037400005F038F904A900200870FFE704A8007804
:103750007449097888422BDAFFE704A800787821B9
:1037600041437148405C71490968497A884219D1DE
:10377000FFE704A80078782141436B484018742182
:10378000405C78B9FFE704A8007878214143664897
:1037900040180146513102462932431C644805F065
:1037A00009F9FFE7FFE70498401C04A90870CDE77A
:1037B000B0E0FFE7E448006804A909780A224A4318
:1037C0005C498918FCF783FD60B1FFE70498411C50
:1037D00004A80170007803A90978884201D1FFE7A5
:1037E00000E0E7E704A8007803A90978491E8842A9
:1037F0000FD8FFE704AA10780A210B4643434D482F
:10380000C318454C2360127851434018474908605B
:1038100080E004A900200870FFE704A80078782160
:1038200041434148415C0298427A00209142019014
:1038300017D1FFE7C448006804A9097878224A43F1
:10384000394989185131FCF742FD014600200190A9
:1038500039B9FFE7BC4800680078411E88410190F3
:10386000FFE70198C007A0B9FFE704A800782D4939
:103870000978491E884207D1FFE7334805F09AF8D6
:10388000304805F097F845E00498401C04A90870FA
:10389000C3E7234805F08EF8029824490091086098
:1038A00004A80078782141431F484018006F8047E2
:1038B00000991948006808601F4805F07BF8DD484A
:1038C0000078012804D1FFE71E4805F073F81DE0D9
:1038D000D848007802280ED1FFE704A800787821A4
:1038E000414311484018411C154805F063F815483C
:1038F00005F060F809E0CF48007820B9FFE70F48ED
:1039000005F058F800E0FFE7FFE7FFE7C9490020AE
:103910000870FFE706B010BDE01100209FA4000072
:1039200036A40000340700202C000020DC11002009
:1039300078A400001D000020B6A1000055A40000DE
:1039400065A400005CA400003BA4000080B582B028
:103950000020202102F0E2F90146B3480090016006
:103960000068FCF7ADFC0146009801AA11700068E0
:10397000AE49FCF7ACFC18BBFFE70020202102F0A9
:10398000CDF90146EC4801600068FCF799FC01465E
:1039900001A80170007804280AD8FFE7E64801680A
:1039A000A5481130FCF7A1FCE5490120887106E02B
:1039B0001D4804F0FFFFE44902200870FFE72EE0F5
:1039C000DD4800689D49FCF782FC00BBFFE7002052
:1039D000202102F0A3F90146EF4801600068FCF7DE
:1039E0006FFC014601A801700078042807D8FFE7A2
:1039F000E948016890482730FCF777FC06E00A4860
:103A000004F0D8FFD04902200870FFE706E08C4898
:103A100004F0D0FFCC4902200870FFE7FFE702B0B6
:103A200080BDC04654310020BCA0000048070020E3
:103A300080B58AB006A9002002900872404907911B
:103A4000404906912021019102F068F9019902464E
:103A50000298039202F062F90199024602980492D8
:103A600002F05CF9019902460298059202F056F9BB
:103A70000146C94801600068007820B1FFE7C948E5
:103A800004F098FF5AE0059804F0D4F8014609A81C
:103A9000018000881F2804D8FFE709A8008838B9EA
:103AA000FFE72B4804F086FFA7490220087045E095
:103AB000049804F0BFF8014609A8018000880C288A
:103AC00004D8FFE709A8008838B9FFE7204804F0C8
:103AD00071FF9D490220087030E0039804F0AAF8B5
:103AE000014609A801800088C008FD2806D3FFE729
:103AF00009A800881549884207D3FFE7144804F055
:103B000059FF91490220087018E0039804F092F8D8
:103B100040F2D071401A894900918870049804F0ED
:103B200089F800994870059804F084F801460098D7
:103B3000017000F0A9FF99490860FFE70AB080BD55
:103B4000415445205345544454310020210800007D
:103B5000D4A3000080B582B00020202102F0DEF85E
:103B600001468D48009001600068FCF7A9FB014602
:103B7000009801AA117000682C49FCF7A8FB10BB43
:103B8000FFE70020202102F0C9F8014682480160C9
:103B90000068FCF795FB014601A801700078102829
:103BA00009D8FFE77C4801682348FCF79EFB7B4966
:103BB0000120887106E01E4804F0FCFE62490220E4
:103BC0000870FFE72EE0744800681C49FCF77FFB93
:103BD00000BBFFE70020202102F0A0F801466E485C
:103BE00001600068FCF76CFB014601A801700078D9
:103BF000102807D8FFE7684801680F481630FCF71F
:103C000074FB06E00A4804F0D5FE4F490220087014
:103C1000FFE706E00A4804F0CDFE4B490220087099
:103C2000FFE7FFE702B080BD54310020A9A30000E8
:103C3000E4A0000048070020E4110020A2A3000037
:103C400089A0000080B58CB009A9002003900872FB
:103C500037490A91374909912021029102F05EF813
:103C6000029902460398069202F058F80299024619
:103C70000398059202F052F80299024603980492C2
:103C800002F04CF80146444801600068007820B119
:103C9000FFE7444804F08EFE48E0069803F0CAFFB0
:103CA000014608A801800088182807D3FFE72548A7
:103CB00004F080FE24490220087037E0059803F0E4
:103CC000B9FF014608A8018000883C2807D3FFE718
:103CD0001C4804F06FFE1C490220087026E004987E
:103CE00003F0A8FF014608A8018000883C2807D3FC
:103CF000FFE7144804F05EFE13490220087015E047
:103D0000069803F097FF0D490191C870059803F0DC
:103D100091FF01990871049803F08CFF0146019806
:103D2000417100F0B1FE1D490860FFE70CB080BD95
:103D3000494D452053455454543100204C31002006
:103D4000A8300020C2A3000048070020B0B586B00C
:103D50000020202101F0E2FF01460F4801600068C9
:103D6000007820B1FFE70F4804F024FE12E00B4872
:103D7000006804AD294600F0B9FD29786A78AB786F
:103D8000E8782C796D79029501940090044804F04C
:103D900011FEFFE706B0B0BD54310020A83000206E
:103DA00084A30000B2A3000080B503F073F980BDC6
:103DB00080B5144800788006800F032804D1FFE7FF
:103DC000144804F0F7FD1BE00E4800788006800FD1
:103DD000012804D1FFE70E4804F0ECFD0FE009488C
:103DE00000788006800F022804D1FFE7074804F01E
:103DF000E1FD03E0044804F0DDFDFFE7FFE7FFE736
:103E000080BDC04683120020E39E0000329F000068
:103E1000009F0000F29E000080B58EB0DC490120BA
:103E20000870DC4804F0C6FDDB4804F0C3FD0CA9B3
:103E300000200870FFE70CA8007813280CD8FFE7D3
:103E40000CA80078411CD54804F0B4FDFFE70C989D
:103E5000401C0CA90870EEE7D14804F0ABFD0DA999
:103E600000200870FFE70DA80078032810D8FFE7AE
:103E70000DA80078CB4A4243CB498A185E32142100
:103E800001F0F2FFFFE70D98401C0DA90870EAE76A
:103E9000C34804F08FFDC54804F08CFDBE4804F013
:103EA00089FD0CA900200870FFE70CA800780728FE
:103EB0000CD8FFE70CA80078411CB84804F07AFD44
:103EC000FFE70C98401C0CA90870EEE7B44804F01A
:103ED00071FD0DA900200870FFE70DA800780328E8
:103EE00010D8FFE70DA80078AE4A4243AE498A18C1
:103EF000D632082101F0B8FFFFE70D98401C0DA94C
:103F00000870EAE7A64804F055FDA94804F052FD00
:103F1000A14804F04FFD0CA900200870FFE70CA891
:103F2000007807280CD8FFE70CA80078411C9B48B4
:103F300004F040FDFFE70C98401C0CA90870EEE768
:103F400097480A9004F036FD97489A494218032092
:103F5000082101F089FF0A9804F02CFD964804F02E
:103F600029FD8D4804F026FD0CA900200870FFE70C
:103F70000CA8007827280CD8FFE70CA80078411C73
:103F8000864804F017FDFFE70C98401C0CA9087048
:103F9000EEE78348099004F00DFD834887494218F5
:103FA0000320282102F04EF8099804F003FDF94897
:103FB00004F000FDFB4804F0FDFCFB4804F0FAFCB3
:103FC000F54804F0F7FC0CA900200870FFE70CA8E6
:103FD000007814280CD8FFE70CA80078411C6F4823
:103FE00004F0E8FCFFE70C98401C0CA90870EEE711
:103FF000EA4804F0DFFC0DA900200870FFE70DA8D7
:104000000078032812D8FFE70DA80078654A4243DC
:10401000E349891840F206128A18152101F024FF9D
:10402000FFE70D98401C0DA90870E8E7DB4804F095
:10403000C1FCDE4804F0BEFCD74804F0BBFC0CA970
:1040400000200870FFE70CA8007813280CD8FFE7C1
:104050000CA80078411CF04804F0ACFCFFE70C9879
:10406000401C0CA90870EEE7CC4804F0A3FC0DA995
:1040700000200870FFE70DA80078022811D8FFE79C
:104080000DA80078E14A4243C5498918E44A8A18D4
:10409000142101F0E9FEFFE70D98401C0DA90870FE
:1040A000E9E7BE4804F086FCC14804F083FCBA4846
:1040B00004F080FC0CA900200870FFE70CA8007831
:1040C00014280CD8FFE70CA80078411CD24804F053
:1040D00071FCFFE70C98401C0CA90870EEE7AF4894
:1040E00004F068FC0DA900200870FFE70DA8007817
:1040F000022811D8FFE70DA80078C44A4243A84916
:104100008918C64A8A18152101F0AEFEFFE70D98FE
:10411000401C0DA90870E9E7A04804F04BFCA54835
:1041200004F048FC9C4804F045FC0CA900200870F1
:10413000FFE70CA8007807280CD8FFE70CA8007848
:10414000411CB54804F036FCFFE70C98401C0CA954
:104150000870EEE7914804F02DFC0DA900200870CE
:10416000FFE70DA8007802282AD8FFE70DA80078FD
:10417000A64A42438A498918A64A8A18082101F0AA
:1041800073FEFFE70D98401C0DA90870E9E7C046D3
:104190002C310020729E0000B49C00007FA3000020
:1041A000B6A10000A6060000AE14002040A1000049
:1041B00071A00000381700005AA100001816000076
:1041C000774841F2204140180B907B4804F0F2FB05
:1041D0000B9800784007C10F78480690784A0792FC
:1041E000089009B107980890089A76480490012130
:1041F00004F0E0FB06980B9909780907C90F0590B0
:1042000009B1079805900498059A022104F0D2FBA1
:1042100006980B990978C906C90F039009B1079848
:1042200003900498039A032104F0C4FB664804F049
:10423000C1FB06980B9909788907C90F029009B943
:10424000079802900498029A042104F0B3FB5F4897
:1042500004F0B0FB06980B990978C907019009B9D9
:1042600007980190019A5A48052104F0A3FB4B4896
:1042700004F0A0FB57482021405CC00720B1FFE7B5
:10428000574804F097FB07E053490888401C088012
:10429000524804F08FFBFFE74E482021405C800726
:1042A000002804D5FFE7514804F084FB07E04D499E
:1042B0000888401C08804C4804F07CFBFFE7464817
:1042C0000188484802884A4804F074FB334804F0E7
:1042D00071FB484804F06EFB4748C16B3D48C2681B
:1042E000464804F067FB0DA900200870FFE70DA801
:1042F000007802284BD8FFE70DA80078411C404801
:1043000004F058FB0CA900200870FFE70CA8007807
:10431000032814D8FFE70DA800780521414336484B
:1043200040180CA9097840182C21415C384804F049
:1043300041FBFFE70C98401C0CA90870E6E73148E8
:1043400004F038FB0CA900200870FFE70CA80078E7
:10435000032813D8FFE70DA800782C4941431048E3
:1043600040180CA909784018817B294804F022FBE9
:10437000FFE70C98401C0CA90870E7E7224804F0FE
:1043800019FBFFE70D98401C0DA90870AFE70EB0B0
:1043900080BDC046609E0000B49C0000B6A1000035
:1043A000AE140020D09D0000769D00000BA10000FF
:1043B0009DA1000025A1000002A3000007A40000A9
:1043C000AFA30000E6A3000018A30000E8A20000CD
:1043D0009DA00000A83000207E12002072A20000E4
:1043E0007FA20000801200208C9E0000999E000099
:1043F0002C9E0000A49E0000E4110020CA9E000034
:1044000014A400001FA40000DF9E0000A606000008
:104410002DA40000660400007FA3000096040000A5
:10442000EE03000080B58CB0DE4804F0C3FADE482D
:1044300004F0C0FA0BA900200870FFE70BA8007871
:10444000032810D8FFE70BA80078F54A4243DA4961
:104450008A185E32142101F07BFDFFE70B98401CA7
:104460000BA90870EAE7D14804F0A4FAD04804F098
:10447000A1FA0BA900200870FFE70BA80078032819
:1044800010D8FFE70BA80078E54A4243CA498A18CA
:10449000D632082101F05CFDFFE70B98401C0BA908
:1044A0000870EAE7C148089004F084FAC14804F0B3
:1044B00081FAC1480690C14942180320079008219B
:1044C00001F046FD089804F075FABD4804F072FA50
:1044D00006990798BB4A8A18282101F039FD0898E7
:1044E00004F068FAB84804F065FA0BA900200870D7
:1044F000FFE70BA80078032812D8FFE70BA8007885
:10450000C74A4243AC49891840F206128A1815215D
:1045100001F01EFDFFE70B98401C0BA90870E8E7AF
:10452000A24804F047FAA94804F044FA0BA9002075
:104530000870FFE70BA80078022811D8FFE70BA846
:104540000078B74A42439C498918B94A8A1814210D
:1045500001F0FEFCFFE70B98401C0BA90870E9E78F
:10456000924804F027FA9A4804F024FA0BA9002094
:104570000870FFE70BA80078022811D8FFE70BA806
:104580000078A74A42438C498918A84A8A181521FD
:1045900001F0DEFCFFE70B98401C0BA90870E9E76F
:1045A000824804F007FA8B4804F004FA0BA90020B3
:1045B0000870FFE70BA80078022811D8FFE70BA8C6
:1045C0000078974A42437C498918974A8A180821FB
:1045D00001F0BEFCFFE70B98401C0BA90870E9E74F
:1045E0007248059004F0E6F9734841F22041401802
:1045F0000990794804F0DEF9099800784007C10F66
:1046000048424141754804F0D5F9099800780007FF
:10461000C10F48424141724804F0CCF90998007832
:10462000C006C10F484241416E4804F0C3F90998E1
:1046300000788007C10F484241416B4804F0BAF945
:1046400009980178012002900140484241416748A1
:1046500004F0B0F9059804F0ADF9654804F0AAF942
:1046600002988949049120220392895C01406148A3
:1046700004F0A0F903990498405C02210840410825
:104680005D4804F097F9059804F094F95B4804F04C
:1046900091F90BA900200870FFE70BA80078022809
:1046A0002CD8FFE70BA80078411C5B4804F082F986
:1046B0000AA900200870FFE70AA80078032814D888
:1046C000FFE70BA80078052141434E4840180AA98E
:1046D000097840182C21415C524804F06BF9FFE73F
:1046E0000A98401C0AA90870E6E74C4804F062F9F1
:1046F000FFE70B98401C0BA90870CEE7404804F078
:1047000059F94048C16B404804F054F9274804F077
:1047100051F93E4804F04EF90BA900200870FFE75C
:104720000BA8007802282BD8FFE70BA80078411CC3
:10473000394804F03FF90AA900200870FFE70AA8E9
:104740000078032813D8FFE70BA8007834494143C9
:10475000194840180AA909784018817B314804F0AB
:1047600029F9FFE70A98401C0AA90870E7E72B48D7
:1047700004F020F9FFE70B98401C0BA90870CFE765
:10478000234804F017F94048C1681F4804F012F9A3
:104790002048019004F00EF9019804F00BF90CB0D8
:1047A00080BDC0466CA2000016A20000F6A1000069
:1047B0005AA200001CA20000AE140020381700000E
:1047C00059A20000181600004AA2000013A200001F
:1047D00047A2000050A2000060A20000B9A10000A2
:1047E000C2A10000CBA10000D4A10000DCA1000008
:1047F00005A20000BBA10000FAA1000027A2000052
:104800000BA40000E4110020EDA1000038A200007C
:1048100024A400006FA2000015A40000F7A100006E
:10482000A60600002DA40000660400009604000007
:10483000EE03000080B584B00020202101F06EFA64
:104840000146224801600068007820B1FFE7264851
:1048500004F0B0F816E00C48006802A9019100F0DD
:1048600045F80198C1780948009004F0A3F801992F
:104870000098097904F09EF801984179044804F001
:1048800099F8FFE704B080BDA8300020E2A2000044
:10489000DFA4000080B50020202101F03FFA01468E
:1048A0000A4801600068007820B1FFE70E4804F074
:1048B00081F80AE00648074904F07CF806480749F1
:1048C000074A084B04F076F8FFE780BD543100201A
:1048D000ABA0000093A20000F2A300008EA2000093
:1048E000D1A20000C3A20000B2A3000084B00390D4
:1048F000029101A900200880FFE7019918310320E7
:1049000001404842414168460170007870B1FFE7BC
:1049100003989849884209D3FFE70198401C01A9F0
:104920000880039857494018039017E068460078BC
:1049300070B9FFE703988E49884209D3FFE70198D1
:10494000401C01A9088003984D494018039004E0D9
:10495000019818300299887001E0FFE7CDE701A9BE
:1049600000200880FFE768460078F0B1FFE701A863
:104970000088012819D1FFE7039801A90A887B491B
:10498000895C4A1C7849514388420ED3FFE701A94C
:104990000A887648805C401C734A42430398801A18
:1049A00003900198401C08801CE0039801A90A8824
:1049B0006E498A5C6C49514388420DD3FFE701A9D7
:1049C0000A886A48805C684A42430398801A0390C8
:1049D0000198401C088004E00198401C029948702E
:1049E00001E0FFE7BFE701A900200880FFE7039887
:1049F0005D49884209D3FFE7039820494018039096
:104A00000198401C01A9088004E00198401C02990B
:104A1000087000E0EBE701A900200880FFE7039899
:104A20000009E1280AD3FFE7039840F61061401A15
:104A300003900198401C01A9088003E001980299A5
:104A4000C87000E0EBE701A900200880FFE70398A9
:104A50003C2808D3FFE703983C3803900198401C9A
:104A600001A9088003E001980299087100E0EEE7CF
:104A700003980299487104B07047C04680AEFEFFAB
:104A800080CC1EFE007B1DFE84B0039000200090B1
:104A900003998978183902AA118001A90880FFE7D3
:104AA00001A8008802A90988884215DAFFE7019861
:104AB0001830800728B9FFE700982E494018009069
:104AC00004E000982A4940180090FFE7FFE70198AA
:104AD000401C01A90880E3E703984078401E02A922
:104AE000088001A900200880FFE701A8008802A92A
:104AF000098888421EDAFFE701A801881B48405C4C
:104B00001949414300984018009003988078800725
:104B100050B9FFE701A80088012805D1FFE70098F8
:104B2000114940180090FFE7FFE70198401C01A9D8
:104B30000880DAE703980078401E0B49414300984B
:104B4000401800900399CA7840F6106050430B79E2
:104B50003C225A4380184979411800984018009027
:104B6000009804B07047C04680510100350700200E
:104B70008033E1010085E2018AB009AB1870089129
:104B8000079206A900200870FFE706A8007809A987
:104B9000097888426BDAFFE7089806A90978405C33
:104BA00005A9087003A900200870FFE703A8007892
:104BB000032856D8FFE705AA11780320014004A86E
:104BC000017011788908117006998900039A891873
:104BD00002AA11700799137806225A438918019185
:104BE00000780090032828D800998A0001A0801836
:104BF0008746C04600F013B800F004B800F008B8CB
:104C000000F014B80199002008700199888015E01F
:104C10000199012008700199002088800EE0019917
:104C20000320087001990120888007E00199032082
:104C3000087001990120888000E0FFE70199087859
:104C40004978884207D0FFE70199012088700199CF
:104C500008784870FFE7FFE70398401C03A9087035
:104C6000A4E7FFE70698401C06A908708DE70AB084
:104C7000704789B008AB18700791069205A900200B
:104C80000870FFE705A8007808A90978884233DA98
:104C9000FFE7079805A90978405C04A9087002A9F4
:104CA00000200870FFE702A8007807281ED8FFE759
:104CB00004A908780122104003AA1070087840085F
:104CC00008700598C0000299401801A9087006985C
:104CD0000A78062151434018009003980099087003
:104CE000FFE70298401C02A90870DCE7FFE705987F
:104CF000401C05A90870C5E709B0704780B582B0AF
:104D00005548407F08B1FFE7A1E054480078C0074C
:104D100028B1FFE752480078FEF73EFB00E0FFE7CE
:104D200089484078C00708B1FFE78FE04D48007818
:104D3000B8B9FFE749490120087049480190007857
:104D400001F06CFC01980078022804D1FFE7444987
:104D50000020087004E042490878401C0870FFE712
:104D600065E040480078012808D1FFE73B49012071
:104D700008703B48007801F07DFC57E03948007826
:104D8000022808D1FFE7354901200870344800782F
:104D900001F040FB49E033480078032808D1FFE7E1
:104DA0002E49012008702E48007801F08DFB3BE071
:104DB0002C480078042808D1FFE728490120087012
:104DC0002748007801F06AFB2DE026480078052886
:104DD00008D1FFE72149012008702148007801F03F
:104DE00089FB1FE01F480078062808D1FFE71B4910
:104DF000012008701A48007801F026FC11E01948DB
:104E00000078072808D1FFE71448002101701448F2
:104E1000007803F057FD03E0124900200870FFE717
:104E2000FFE7FFE7FFE7FFE7FFE7FFE7FFE70D48E3
:104E30000078072804D1FFE70A490020087004E041
:104E400008490878401C0870FFE7FFE7FFE702F019
:104E500085FA02B080BDC046E42F002086120020F3
:104E6000851200208712002080B584B03248007877
:104E7000029040B1FFE7029801281CD0FFE702989A
:104E8000022831D054E02C4901200190087002F032
:104E9000D9F800F097FF01982C4A002111702C4995
:104EA000C8672C4908702C4803F02AFB2B4940F2B4
:104EB000E83048813DE0012001F044FB014603A8B1
:104EC0000170007808B1FFE733E003F05BF8FFE71B
:104ED0001D49012048700020FEF772F8FCF7F8FB2E
:104EE00015490220087024E001F028FCFEF752F971
:104EF00000F07CFF01F022FCFFF700FF01F080FCD6
:104F000001F020F901F0A4FC00F080F90120FEF787
:104F100057F803F0B3F8FDF7A7FE08490848086002
:104F200008480078C00710B1FFE7FFE7FEE700E0A0
:104F3000FFE704B080BDC04688120020080004408E
:104F4000A55A0000D0130020901200200114002068
:104F5000A83000201C0000208813000034310020FD
:104F600083B002900191009202990020088002997A
:104F7000488002994873029A012111730299C873FB
:104F800002998873029908820099029A51820199C4
:104F9000029A516003B0704784B00190009101986B
:104FA000007B30B1FFE701990120C87302A90870A6
:104FB00031E0019948680988405C009908700098C0
:104FC0000278019948898018488101990888401C15
:104FD0000880EFF3108072B603900199088A401E92
:104FE000088262B60199002048730198008A20B9AE
:104FF000FFE7019901200873FFE701990888498AB2
:10500000884204DBFFE7019900200880FFE702A93E
:1050100000200870FFE702A8007804B0704783B052
:10502000019000910198007B30B1FFE701990120C8
:10503000C87302A908702CE0019948680988405C8F
:105040000099087000980278019948898018488171
:1050500001990888401C08800199088A401E08822E
:105060000199002048730198008A20B9FFE701994F
:1050700001200873FFE701990888498A884204DB08
:10508000FFE7019900200880FFE702A900200870CF
:10509000FFE702A8007803B0704781B00090009944
:1050A000002008800099488000994873009A0121E7
:1050B00011730099C873009988730099088201B030
:1050C000704784B00190684601700198407B30B110
:1050D000FFE701990120887302A9087032E0684651
:1050E000027801990889801808810098019A51680E
:1050F0005288885401994888401C4880EFF31080FA
:1051000072B603900199088A401C088262B6019920
:10511000002008730199088A498A884204D1FFE770
:10512000019901204873FFE701994888498A88421C
:1051300004DBFFE7019900204880FFE702A9002077
:105140000870FFE702A8007804B0704780B584B00B
:105150000390029101A80270694600200870FFE7E1
:105160006846007801A9097888420DDAFFE70398BC
:1051700002996A461278895CFFF7A3FFFFE700985F
:10518000401C69460870EBE704B080BD83B0019015
:10519000684601700198407B30B1FFE7019901201A
:1051A000887302A908702DE0684602780199088981
:1051B000801808810098019A516852888854019992
:1051C0004888401C48800199088A401C088201993F
:1051D000002008730199088A498A884204D1FFE7B0
:1051E000019901204873FFE701994888498A88425C
:1051F00004DBFFE7019900204880FFE702A90020B7
:105200000870FFE702A8007803B0704780B54B48EC
:10521000407F08B1FFE78EE04948007820B1FFE702
:105220000320FEF7B9F800E0FFE74648007838B9F8
:10523000FFE7434901200870002001F083F96BE08B
:1052400040480078012806D1FFE73D490120087059
:1052500001F066F95FE03B480078022807D1FFE7DC
:10526000374901200870032001F004FA52E0354864
:105270000078032807D1FFE7314901200870032097
:1052800001F0C8F845E02F480078042806D1FFE770
:105290002B490120087001F0D3F839E02948007843
:1052A000052807D1FFE7264901200870032001F0F7
:1052B000B5F92CE023480078062817D1FFE72049EC
:1052C00000200870204800784007C00F30B9FFE781
:1052D0001D4800780007C00F18B1FFE703F04EFB30
:1052E00003E0184900200870FFE70FE01548007838
:1052F000072806D1FFE71449487801221043487077
:1053000003E0104900200870FFE7FFE7FFE7FFE731
:10531000FFE7FFE7FFE7FFE70A480078072804D127
:10532000FFE708490020087004E006490878401C9F
:105330000870FFE7FFE702F047F980BD0C3000205E
:10534000B0130020B11300208312002080B582B07A
:10535000019000910198FCF7F3FD019802B080BD27
:1053600080B582B00190FBF719FE0020009045F651
:105370000001FBF79FFD01990860FBF795FD009880
:1053800002B080BD80B58EB0BD48BE4940180D90BA
:105390000D98C078C00960B1FFE7BB480C901C3085
:1053A0007049FAF7A2FF0C9824306F49FAF79DFF75
:1053B0005AE00D9800788006C00F60B1FFE7B24850
:1053C0000B901C306549FAF790FF0B982430644924
:1053D000FAF78BFF47E00D9800798006800F0128CF
:1053E0000CD1FFE7A8480A901C305A49FAF77DFF14
:1053F0000A9824305849FAF778FF33E00D9800797D
:105400008006800F02280CD1FFE79F4809901C30CE
:10541000A249FAF76AFF099824304D49FAF765FF67
:105420001FE00D9800798006800F03280CD1FFE75C
:10543000954808901C304449FAF757FF08982430E3
:105440004249FAF752FF0BE08F4807901C303C4965
:10545000FAF74BFF079824303A49FAF746FFFFE77F
:10546000FFE7FFE7FFE7FFE70D9840784006C00F32
:1054700060B1FFE78448069018304349FAF735FFDA
:10548000069834304149FAF730FF57E00D9800781C
:105490008007C00F60B1FFE77B4805901830834953
:1054A000FAF723FF059834303649FAF71EFF44E037
:1054B0000D980079800901280CD1FFE7724804900B
:1054C00018302E49FAF711FF049834302C49FAF7B6
:1054D0000CFF31E00D980079800902280CD1FFE71C
:1054E0006948039018302349FAF7FFFE03983430D7
:1054F0002149FAF7FAFE1EE00D9800798009032889
:105500000CD1FFE76048029018306249FAF7EDFECF
:10551000029834301649FAF7E8FE0BE05A48019039
:1055200018305A49FAF7E1FE019834300F49FAF77A
:10553000DCFEFFE7FFE7FFE7FFE7FFE70EB080BD18
:10554000FBA400008DA50000F2A40000ABA50000A4
:1055500052A50000EFA400006FA50000F8A4000011
:1055600016A50000F5A4000034A500009CA50000CD
:10557000BAA50000FEA4000062A5000004A500007A
:105580007EA5000022A500000AA5000043A500009A
:1055900080B588B03A483B49401807900798407852
:1055A0004006C00F60B1FFE7374806901830414908
:1055B000FAF79BFE069844303F49FAF796FE57E00B
:1055C000079800788007C00F60B1FFE72E4805906C
:1055D00018303649FAF789FE059844303449FAF70D
:1055E00084FE44E007980079800901280CD1FFE788
:1055F0002548049018302B49FAF777FE0498443078
:105600002949FAF772FE31E00798007980090228EB
:105610000CD1FFE71C48039018302049FAF765FECB
:10562000039844301E49FAF760FE1EE0079800799F
:10563000800903280CD1FFE7134802901830154960
:10564000FAF753FE029844301349FAF74EFE0BE086
:105650000D48019018300D49FAF747FE0198443083
:105660000B49FAF742FEFFE7FFE7FFE7FFE7FFE737
:1056700005481C301149FAF738FE08B080BDC04615
:10568000AE14002012140000A830002010A5000065
:10569000A0A5000007A50000BEA5000001A5000010
:1056A00066A50000E9A4000082A500000DA5000089
:1056B00026A50000ECA4000047A5000013A50000EB
:1056C00084B002A9BC48088001A900200870FFE747
:1056D00001A80078032818D8FFE70298401E02A905
:1056E000088001A80078B9494143B44840180079BE
:1056F000C00720B1FFE7029803A9088057E1FFE740
:105700000198401C01A90870E2E701A90020087077
:10571000FFE701A80078022818D8FFE70298401E8A
:1057200002A9088001A80078A8494143A34840186D
:105730004079C00720B1FFE7029803A9088036E14D
:10574000FFE70198401C01A90870E2E701A90020C9
:105750000870FFE701A80078022838D8FFE76946FB
:1057600000200870FFE768460078132829D8FFE773
:105770000298401E02A9088001A80078934941437D
:105780008E484018807AC007A8B1FFE701A80078CA
:105790008E4941438948401869460A780621514399
:1057A00040186221405A012804D1FFE7029803A95A
:1057B0000880FCE0FFE7FFE70098401C694608709E
:1057C000D1E7FFE70198401C01A90870C2E701A9D1
:1057D00000200870FFE701A80078022832D8FFE710
:1057E000694600200870FFE768460078132823D830
:1057F000FFE70298401E02A9088001A800787349BB
:1058000041436E4840188079C00778B1FFE701A88E
:1058100000786E494143694840188079C00720B13B
:10582000FFE7029803A90880C1E0FFE7FFE70098BF
:10583000401C69460870D7E7FFE70198401C01A9A2
:105840000870C8E701A900200870FFE701A80078E8
:1058500002283AD8FFE7694600200870FFE768464B
:10586000007813282BD8FFE70298401E02A9088071
:1058700001A800785549414350484018C079C007F5
:10588000B8B1FFE701A80178504848434B496A4640
:10589000137806225A43891808185E22805C4C4A05
:1058A000895C884204D0FFE7029803A908807EE063
:1058B000FFE7FFE70098401C69460870CFE7FFE765
:1058C0000198401C01A90870C0E701A900200870D8
:1058D000FFE701A8007802283AD8FFE769460020D0
:1058E0000870FFE76846007807282BD8FFE7029882
:1058F000401E02A9088001A80078344941432F487E
:105900004018007AC007B8B1FFE701A801782F4816
:1059100048432A496A46137806225A4389180818C8
:10592000D622805C274A895C884204D0FFE702982F
:1059300003A908803BE0FFE7FFE70098401C6946A9
:105940000870CFE7FFE70198401C01A90870C0E785
:10595000694600200870FFE768460078032822D8CF
:10596000FFE70298401E02A9088014481449405CD1
:10597000C00790B1FFE768460078062141430F4811
:1059800041181048085C104A895C884204D0FFE73F
:10599000029803A908800AE0FFE7FFE70098401C8F
:1059A00069460870D8E703A900200880FFE703A82C
:1059B000008804B07047C0460F270000AE140020D6
:1059C000FB130000C814000038170000A6060000F2
:1059D0005014000083B0029000200190FFE702986D
:1059E0000078F0B3FFE70298411C02910178684605
:1059F0000170007830280ADBFFE768460078392814
:105A000005DCFFE7009830386946087020E06846FA
:105A1000007861280ADBFFE768460078662805DC25
:105A2000FFE7009857386946087010E0684600782C
:105A300041280ADBFFE768460078462805DCFFE7D7
:105A4000009837386946087000E0FFE7FFE7FFE796
:105A500001980001694609780F2211404018019011
:105A6000BDE7019803B0704780B582B0019010483F
:105A7000FAF780FF0F490868FF221204904308607C
:105A800008683322520410430860019840680A49AC
:105A9000FBF70AFB01984068FBF7E3FA2620FCF7C6
:105AA0006BFE019840680021FBF7E4FA02B080BD6C
:105AB0000800004038000040A086010083B002903A
:105AC0000191019808380090302800D9B8E0009979
:105AD0008A0001A08018874600F060B800F0B0B8D6
