:020000040000FA
:10000000B00A0020ED010000F5010000F70100003A
:1000100000000000000000000000000000000000E0
:1000200000000000000000000000000007020000C7
:100030000000000000000000090200000B020000A8
:100040000D0200000D0200000D0200000D02000074
:100050000D0200000D0200000D0200000D02000064
:100060000D0200000D0200000D0200000D02000054
:100070000D0200000D0200000D0200000D02000044
:100080000D0200000D0200000D0200000D02000034
:100090000D0200000D0200000D0200000D02000024
:1000A0000D0200000D0200000D0200000D02000014
:1000B0000D0200000D0200000D0200000D02000004
:1000C0000D0200000D0200000D020000E11400000E
:1000D0000D0200000D0200000D0200000D020000E4
:1000E0000D0200000D0200000D0200000D020000D4
:1000F0000D0200000D0200000D0200000D020000C4
:100100000D0200000D0200000D0200000D020000B3
:100110000D0200000D0200000D0200000D020000A3
:100120000D0200000D0200000D0200000D02000093
:100130000D0200000D0200000D0200000D02000083
:100140000D0200000D0200000D0200000D02000073
:100150000D0200000D0200000D0200000D02000063
:100160000D0200000D0200000D0200000D02000053
:100170000D0200000D0200000D0200000D02000043
:100180000D0200000D0200000D0200000D02000033
:100190000D0200000D0200000D0200000D02000023
:1001A0000D0200000D0200000D0200000D02000013
:1001B0000D0200000D0200000D0200000D02000003
:1001C0000D0200000D0200000D0200000D020000F3
:1001D0000D0200000D0200000348854600F01EFAE3
:1001E00000480047495F0000B00A00200C488047E3
:1001F0000C480047FEE77046EFF30881EFF30982F1
:10020000094B98470047FEE7FEE7FEE7FEE70000E0
:10021000ABBE064B7446984720477046F047000037
:1002200045130000D9010000D90D0000990E00000F
:10023000F0B51FB40646002082B005464024019167
:1002400000901BE0019922460F46304600F02DFA3F
:10025000049A059B801A994110D3104619462246EC
:1002600000F013FA361A8F4101972246012000212F
:10027000009F00F00AFA38184D4100902046641E95
:100280000028DFDC019B00982946324607B0F0BD0C
:10029000F0B507460846584087B0C00F04904800A4
:1002A0000E46590040084908BC1A884105D2384614
:1002B00031461E4617460B4602465800400810437A
:1002C0004CD0300D039040055900400D490D05906C
:1002D000401A0290402872DA18030121000B090528
:1002E0000843019004980092002805D001995242D9
:1002F0000020884100920190029840210A1A019939
:10030000009800F0C2F905460C466B4607CB00F09A
:10031000DDF9C0197141039A0E0D0023D71756401D
:100320001A467A40164344D0049A002A2DD0029AE5
:10033000012A039A15DC1205C01A914101263605DF
:10034000001C7141D20F059ED207009301920296C4
:100350002A46234600F0DAF907B0F0BD38463146A8
:10036000FAE71605224A0F46B218C01AB741012112
:100370000905001C4F4100187F41114618187941AA
:10038000E20F10436D19644113E0E2076D08154355
:100390006408C2071443039A01261205C01A91414A
:1003A0003605001C7141CE07400830434908C0188B
:1003B00051412A46234600F09CF9CDE7FFE7049817
:1003C00001224000C117121A00238B4104983146C4
:1003D000C417381AA141EEE730B40124E4076340A2
:1003E00030BC55E730B40124E407614030BC4FE72E
:1003F0000000E0FFF0B51FB488B00B990998002405
:1004000048400999C00F490049080991C0070B9954
:100410000090490049080B9109990898A64608439D
:100420001CD00B990A98084318D009980124400061
:10043000420D4800410D099824050003000B20439C
:1004400009900B980003000B20430B9050181C4997
:100450004018002201901446104605E00020014695
:100460000DB0F0BD032801DA034600E003239C46EB
:10047000C11A0AAE0AE05F0008ADED5B4F00F75B02
:100480007D430027AA187C41491C5B1E6145F2DDB3
:10049000410004AB5A522104120C0A43240C401CA4
:1004A0000828DFDB019802900099704601910090C6
:1004B000059B049A0799069800F028F9D0E70000F8
:1004C0000DFCFFFFF0B50C465C4085B0E40FE4077F
:1004D00003944C00002664085900944649080246DB
:1004E0000296224321D062460A431ED06200570D75
:1004F0004A000E032303550D012402462C4924050E
:10050000781B1B0B360B4018234326436146009093
:100510001C46501AB44103D30098401C009002E0DE
:10052000921800985B41002803DA0020014605B0CC
:10053000F0BD0020012109050746864611E064460A
:100540001D46141BB54106D36546521BB341744684
:1005500007430C43A646CD07400849082843921894
:100560005B4105460D43EAD11046184313D060465F
:10057000194650407140084306D06046101AB341F6
:1005800006D20122002306E000220123DB0702E05D
:100590000122D2435310009874460105381C614172
:1005A000029C039D0019694100F0A3F8BFE7000019
:1005B000FD0300004A0009030123090B1B05194331
:1005C0000A4B10B5520D9A4202DA0020014610BDC6
:1005D000064B34339A4203DC9A1A00F066F810BDD9
:1005E000034BD21800F051F810BD0000FF030000CB
:1005F000CDFBFFFF10B5002904DB0124E4074042D6
:100600008C412146002B04DB1C460123DB075242B0
:10061000A341994200D1904210BD00001CB5094889
:1006200000900948019005460126009C05E0E3681A
:1006300007CC33430C3C98471034AC42F7D3FFF758
:10064000CFFD0000647700008477000070B5044699
:10065000002903D000202022012310E0002801D02F
:100660000020C043C046C0460DE02546D5408D421F
:1006700005D30D469540641B1D469540401915460F
:10068000521E002DF1DC214670BD10B5202A04DB7E
:100690000146203A9140002010BD914020239C1A31
:1006A0000346E3401943904010BD10B5202A04DBF7
:1006B0000846203AD040002110BD0B46D340D04020
:1006C0002024A21A91400843194610BD10B5202AD3
:1006D00006DBCB170846203A1041C1170B4306E052
:1006E0000B461341D0402024A21A914008431946DA
:1006F00010BD10B5002B08DA0024401C614192188F
:100700005B411A4301D14008400010BDF0B51FB451
:1007100082B005460C0003D0084606F04FFB02E00D
:1007200006F04CFB20300246009021462846FFF799
:10073000ACFF049B059A04460F4618431143084337
:1007400014D0184610431BD0009840210A1A1846AE
:100750000599FFF7AAFF05460E46009A05990498E9
:10076000FFF793FF084305D0012004E020463946F7
:1007700007B0F0BD0020C11705430E432C4337439B
:1007800000990E986305401A7905E40A00220C438B
:10079000FD0A0A3002D500200146E9E701051019DB
:1007A00069410C9C0D9D00196941FFF7A2FFDFE72D
:1007B00083B0029000200190009002991F20014018
:1007C000012088400190074800900298800F810026
:1007D000009840180090019A00990868104308603A
:1007E00003B070470402004081B00090009AEB49CA
:1007F00008681043086001B07047C046B0B592B0B9
:10080000504907A83CC93CC03CC93CC0BD48019008
:100810004D480068022108400090BB4800680690DF
:1008200006A880780521084204D0FFE74749002048
:10083000086037E006A880780007002803D5FFE7A6
:10084000B248059002E0B1480590FFE706A880781D
:100850008007002804D5FFE705983C49086020E0A0
:1008600006A80088810B01A840180078029006981D
:10087000A7490840801C0490069843F60061084090
:10088000400A401C039005988008049948434000A2
:10089000039A02995143B0FBF1F080002B490860A4
:1008A000FFE7FFE7E748006807210840109010982D
:1008B000012821D1FFE7009830B9FFE722490868F5
:1008C000022210430860FFE7214800680006002864
:1008D00004D5FFE747F60050119003E048F200000E
:1008E0001190FFE7009830B9FFE717490868022226
:1008F00090430860FFE70EE01098022804D1FFE75C
:1009000012480068119005E01098810007A840582F
:100910001190FFE7FFE7CA4800680F210840401C1C
:100920000F9011980F99B0FBF1F1D5480160016863
:10093000084A8918084AB1FBF2F1084A11600068B8
:1009400012B0B0BDB47600000802004004000020E0
:100950000011044020A1070040420F0000000020C9
:1009600080B500F0D1FCC648006880BD87B0069015
:100970000020059004900C2103910821029104218C
:100980000191009006982849884206D1FFE72A483D
:10099000006801210840059043E0069823498842F9
:1009A00007D1FFE72448006802210840400805906D
:1009B00036E006981E49884208D1FFE71E480068C5
:1009C00040F200110840000A059028E006981949F5
:1009D000884208D1FFE71848006840F2002108402B
:1009E000400A05901AE006980001400FA8B1FFE701
:1009F0000698810E0C2001406846405891494018E5
:100A000004900498006806990A01520FC901C90EA2
:100A10008A401040C8400590FFE7FFE7FFE7FFE787
:100A2000FFE7059807B070471000008011000080B4
:100A300012000080130000801802004080B500F012
:100A400063FCCC4800680949096807221140C84086
:100A500080BDC04680B500F057FCC6480068034919
:100A60000968702211400909C84080BD3402004065
:100A700087B0002006902348009023480068059026
:100A800005A880780521084203D0FFE700200690E2
:100A900035E005A880780007002803D5FFE71B484C
:100AA000049002E019480490FFE705A880788007C9
:100AB000002803D5FFE7049806901FE005A80088EA
:100AC000810B68464018007801900598104908404D
:100AD000801C0390059843F600610840400A401CC2
:100AE000029004988008039948434000029A0199B3
:100AF0005143B0FBF1F080000690FFE7FFE7069856
:100B000007B070470102020440020040001BB7001A
:100B1000FF01000080B584B003900291594801683C
:100B20001020014001911D4A1168042319431160EE
:100B300000F08AF843490868072210430860184902
:100B4000086840F20012904308603D4908680F228F
:100B50009043029A104308600398052809D1FFE7E3
:100B60000F49086840F2031210430C2290430860BA
:100B7000FFE73449086807229043039A104308604E
:100B800000F0C2FB019830B9FFE70449086804226D
:100B900090430860FFE704B080BDC04600020040FB
:100BA0004CC000408DB00C900B910A92002009902F
:100BB00008900C21079108220692042105910490C7
:100BC000102303930292019100900C98800A000672
:100BD000B8B1FFE70CA841880C2001406846405896
:100BE000174940180890089800680C9A910AC9B2F1
:100BF0009205D20E914088430A99084308990860EB
:100C0000FFE70C980001400FB8B1FFE70C98810E88
:100C10000C20014004A840580A494018099009983E
:100C200000680C9A1101490FD201D20E91408843FD
:100C30000B99084309990860FFE70DB07047C0465B
:100C4000200200401002004083B002904948006832
:100C5000C008019001200090FFE70A48006802994F
:100C60000840884209D0FFE70198401E019018B95A
:100C7000FFE70020009000E0EFE7009803B0704726
:100C800008000020500200403F49086801229043BC
:100C90000860704785B003900291314900200860D8
:100CA00003A80088400528B9FFE702A8008840058E
:100CB00040B1FFE72A490120C04308600020C0433B
:100CC000019046E027492D200860039826490860D6
:100CD00002982649086026490120086025480068D6
:100CE00040000090FFE724480068C00768B1FFE7B4
:100CF0000098411E0091002806DCFFE718490020FB
:100D0000C0430860049027E0EDE716490D20086015
:100D100003981549086016490120086015480068C5
:100D200040000090FFE714480068C00768B1FFE783
:100D30000098411E0091002806DCFFE708490020CA
:100D4000C0430860049007E0EDE7084800680190A0
:100D5000FFE701980490FFE7049805B07047C0468C
:100D6000640200200CC0004004C0004008C00040E5
:100D700010C000400800002040C000400249086840
:100D8000012210430860704700C0004084B0039007
:100D90000291019200200090FFE700980F2818D8D8
:100DA000FFE702980099C840C00768B1FFE70398C1
:100DB000006800994A0003219140884301999140BD
:100DC000084303990860FFE7FFE70098401C009084
:100DD000E3E704B07047000080B584B0039002914F
:100DE000019203A80078400600280DD5FFE703A86C
:100DF00000784007002803D5FFE70198009002E043
:100E000002980090FFE7FFE71A4805F0C7FF009837
:100E10000168194805F0C2FF00984168174805F0BD
:100E2000BDFF00988168164805F0B8FF0098C168BA
:100E3000144805F0B3FF00980169134805F0AEFFB0
:100E400000984169114805F0A9FF00988169104890
:100E500005F0A4FF0098C1690E4805F09FFFFFE769
:100E6000009800680121084308B1FFE7F8E70398FC
:100E700004B080BDF4760000037700000F77000017
:100E80001B770000277700004B7700003F770000BA
:100E9000337700005777000083B0029001910092F1
:100EA000002003B0704781B0009000998868092243
:100EB0009043886001B0704710B58AB00C9C0990CF
:100EC0000891079206930020059000900999086EFA
:100ED0000122904308660698202803D1FFE70020EE
:100EE0000690FFE7FFF73CFD0390FFF7A7FD029098
:100EF000FFF7B0FD0190089800B143E10999002087
:100F00008860089806990902084307990843012157
:100F10000843099908600C980399884236D3FFE783
:100F20000998C049884208D1FFE7C14908682022D2
:100F3000104310229043086027E00998BA4988427C
:100F400008D1FFE7BA490868802210434022904345
:100F5000086019E00998B54988420AD1FFE7B44909
:100F6000086840F60042904340F60002801808608E
:100F700009E0AF49086843F20002904342F20002E0
:100F800080180860FFE7FFE7FFE7FFE70998A5493A
:100F9000884225D1FFE7AA48FFF7E8FC000118B90D
:100FA000FFE7C14805901AE0A548FFF7DFFC000104
:100FB000102804D1FFE7FFF75BFD05900EE0A04885
:100FC000FFF7D4FC0001202804D1FFE7FFF742FD22
:100FD000059002E0B4480590FFE7FFE7FFE782E0F5
:100FE00009989149884225D1FFE79448FFF7BEFC54
:100FF000800118B9FFE7AC4805901AE08F48FFF769
:10100000B5FC8001402804D1FFE7FFF731FD0590D2
:101010000EE08A48FFF7AAFC8001802804D1FFE790
:10102000FFF70CFD059002E09F480590FFE7FFE702
:10103000FFE757E009987D49884229D1FFE77E48BC
:10104000FFF794FC800218B9FFE7FA4805901EE00C
:101050007948FFF78BFC800240F20041884204D1BE
:10106000FFE7FFF705FD059010E07348FFF77EFCF2
:10107000800240F60001884204D1FFE7FFF7EAFC56
:10108000059002E0EB480590FFE7FFE7FFE728E067
:101090006848FFF76BFC000318B9FFE7E5480590C7
:1010A0001EE06448FFF762FC000341F20001884241
:1010B00004D1FFE7FFF7DCFC059010E05D48FFF787
:1010C00055FC000342F20001884204D1FFE7FFF71C
:1010D000B5FC059002E0D7480590FFE7FFE7FFE782
:1010E000FFE7FFE7FFE70C980399884206D3FFE785
:1010F0000999002048600598009042E00C980599F5
:10110000884206D3FFE709990020486005980090BF
:1011100036E00C9848B9FFE7099948684A4A1043F5
:1011200048600598400A009029E0059A0A2108467F
:1011300050430C9AB0FBF2F0401DB0FBF1F0401EA2
:1011400004900498400A50B1FFE73F4A049209997D
:101150004868104348600598400A00900EE00998DE
:10116000406838490840049908430999486005983F
:101170000499491CB0FBF1F00090FFE7FFE7FFE79F
:10118000FFE74CE00999002088600899069A12024E
:101190001143079A114301221143099A11600999D9
:1011A000486009981F4988420AD1FFE7204908682A
:1011B00020221043102290430860019800902DE0F7
:1011C0000998194988420AD1FFE71949086880221D
:1011D0001043402290430860029800901DE0099857
:1011E000124988420CD1FFE71149086840F60042D5
:1011F000904340F6000280180860019800900BE0D0
:101200000B49086843F20002904342F20002801842
:10121000086002980090FFE7FFE7FFE7FFE700980C
:101220000AB010BD00100640002006400030064005
:10123000180200400600C0A60F00A0660E006066FF
:101240000D00406600FEFFFFFF01000083B002902A
:10125000019100920298006977210906884301995B
:10126000090708430099090608430299086103B079
:101270007047000081B06F480090FFE70B4959208C
:10128000086016200860882008600098401E0090C2
:1012900008B9FFE705E0FFE7044800680028EDD043
:1012A000FFE701B07047C046001BB70000010040D7
:1012B00080B582B00190019800F002F802B080BDC4
:1012C00081B00090FFE70E4800680002002801D5B9
:1012D000FFE7F8E7684600780A280CD1FFE70949DC
:1012E0000D200860FFE7064800680002002801D5CD
:1012F000FFE7F8E7FFE700980249086001B0704790
:10130000180007400000074080B5FFF7B1FB08490F
:101310000860FFF773FA0146064801600068064955
:1013200040180649B0FBF1F00549086080BDC04691
:10133000040000200800002020A1070040420F0008
:1013400000000020014802490860704700000000CA
:1013500008ED00E081B0009000990120886001B0A4
:10136000704781B00090009908680122520710432D
:10137000086001B070470000B0B58CB00B902D48EC
:1013800009902D4901A83CC93CC03CC93CC00B9800
:101390002A49884205D1FFE72E48FFF7E7FA0A906D
:1013A00023E00B982649884205D1FFE72848FFF73C
:1013B000DDFA0A9018E00B982249884205D1FFE730
:1013C0002248FFF7D3FA0A900DE00B988C49884227
:1013D00005D1FFE71C48FFF7C9FA0A9002E0002098
:1013E0000990FFE7FFE7FFE7FFE7099808B9FFE784
:1013F0001DE00A98022813D1FFE70B980F49884295
:1014000005D0FFE70B980E49884204D1FFE7FFF7AC
:1014100015FB099003E0FFF71DFB0990FFE705E0CE
:101420000A98810001A840580990FFE7FFE7099852
:101430000CB0B0BD001BB700D47600000000054022
:1014400000010540001005400500405F0400005FFA
:101450000300C05E0200805E80B586B005900491F6
:1014600003920598FFF788FF0290002001900090FA
:10147000039802994908884203D9FFE702200190A6
:1014800012E002980399B0FBF1F0019001A8C07836
:101490000090009838B1FFE701980099491CB0FB13
:1014A000F1F00190FFE7FFE70498009908430599E0
:1014B00008600198059948600298019A0099491CB2
:1014C0005143B0FBF1F006B080BD81B000900099AF
:1014D0000868012292071043086001B070470000BD
:1014E00080B582B0EFF3108072B601904448FFF7E8
:1014F00031FFBB4804F060FD4248006828B1FFE7B7
:1015000040490868401E0860FFE7002070BBFFE705
:101510003D48008828B1FFE73B490888401E088005
:10152000FFE73A48008828B1FFE738490888401E9D
:101530000880FFE73648008828B1FFE7344908886B
:10154000401E0880FFE73348008828B1FFE7314993
:101550000888401E0880FFE72F48008828B1FFE771
:101560002D490888401E0880FFE7FFE72B480168E7
:101570002B4848430221C8412A49884204D8FFE742
:10158000294901200870FFE724480168244848439E
:101590000321C841254988420AD8FFE7244800882A
:1015A00028B1FFE722490888401E0880FFE7FFE7CF
:1015B0001A4801681F4848430321C8411E49884210
:1015C00004D8FFE71D4901200860FFE713480168C0
:1015D000134848430421C8411949884204D8FFE709
:1015E000164900200860FFE705F088FA00F012F9BC
:1015F0000A490868401C086062B602B080BDC04657
:1016000000110540AC0200206C0200206A0200209C
:101610005E02002060020020680200209402002088
:10162000D578E9266E1283009302002037894100A5
:101630005C020020295C8FC214AE470114480040B0
:101640009BC4200081B00090009800280FD4FFE7D1
:1016500000991F200A460240012090404909890054
:10166000044A8850BFF34F8FBFF36F8FFFE701B07D
:101670007047C04680E100E081B0009000980028EB
:101680000BD4FFE700991F200A460240012090403A
:10169000490989000C4A8850FFE701B07047C046ED
:1016A00081B00090009800280BD4FFE700991F201C
:1016B0000A4602400120904049098900024A8850A8
:1016C000FFE701B07047C04600E100E080B58CB094
:1016D00005F0E0F93E4801903E496422009200F096
:1016E0008FFB009A3C4802903C4900F089FB019A2C
:1016F00002993B4802604160002105910172394A1C
:10170000C260817201210791417204F0D5FC079AF1
:10171000354820210391FFF739FB079A334804909D
:1017200004210891FFF732FB0498059A0821FFF77E
:101730002DFB0498079A1021FFF728FB03990498C2
:10174000079AFFF723FB0498059A41F20001FFF77F
:101750001DFB059A079926480690FFF717FB059A87
:1017600006980221FFF712FB0698079A0899FFF7DF
:101770000DFB05F09DF9089A1E49086810430860A2
:101780001D49086809221043086006F045DB0B90EC
:101790001A4800680A900A980B99884205D2FFE718
:1017A0000B980A99401A099002E000200990FFE77F
:1017B000134801681348484313490860134900203F
:1017C0000860134908680522104308600CB080BD0A
:1017D0004C020020F00000203C0200208C00002081
:1017E0000C000020496200004041004000400040E1
:1017F000C04000400402004000C0004028F0024009
:1018000000000020E093040014E000E018E000E095
:1018100010E000E0B0B58AB0E548016805A80170A5
:10182000E449096804AA1170017800200129039095
:1018300006D1FFE7E0480078414248410390FFE7C6
:1018400003980121084007A9087005A80178002025
:10185000029039B9FFE7D8480078401E414248411C
:101860000290FFE702980121084006A90870059838
:10187000D149087004A8007898B9FFE7D74900203B
:101880000870D94A01211160D3490870D449087001
:10189000CA490870CC490870CC490870CD49087015
:1018A00083E107A80078C00700B9CDE0C9490878EE
:1018B000401C0870C84800780190032800D9C1E096
:1018C00001998A0001A080188746C04600F006B83A
:1018D00000F032B800F05DB800F088B8BF48027878
:1018E000012191400991099ABD490B78B849C9185D
:1018F00089790A40511E8A4108A90A700978BA4AB2
:1019000011600178491C01700078082813D1FFE7A5
:10191000B24900200870B2480178491C0170007873
:10192000052807D1FFE7AC4901200870AC49002029
:101930000870FFE7FFE786E0A848027801219140A0
:101940000991099AA6490B78A949C95C0A40511E18
:101950008A4108A90A700978A34A11600178491CD4
:1019600001700078082813D1FFE79C490020087017
:101970009B480178491C01700078022807D1FFE7D5
:10198000974900200870944902200870FFE7FFE79C
:1019900059E092480278012191400991099A9049B1
:1019A0000B789249C95C0A40511E8A4108A90A7005
:1019B00009788D4A11600178491C01700078082867
:1019C00013D1FFE785490020087085480178491C3C
:1019D00001700078062807D1FFE7814900200870D0
:1019E0007D4903200870FFE7FFE72CE07B48027881
:1019F000012191400991099A79490B787949C95C8B
:101A00000A40511E8A4108A90A700978764A116075
:101A10000178491C01700078082812D1FFE76F494E
:101A2000002008706E480178491C01700078052874
:101A300006D1FFE76A490020087067490870FFE790
:101A4000FFE700E0FFE7AFE006A80078C00700B9B5
:101A5000A8E05A4800780090032800D9A0E0009937
:101A60008A0001A08018874600F006B800F035B85B
:101A700000F064B800F093B8514908784008087045
:101A800008787F22104008704E480068C20108782C
:101A9000104308704C480178491C017000780828F0
:101AA0001AD1FFE7484800210170454A137847489A
:101AB0000578CC4C6419E37211700178491C0170EF
:101AC0000078052807D1FFE73C49012008703F490D
:101AD00000200870FFE7FFE763E039490878400815
:101AE000087008787F221040087036480068C201EC
:101AF00008781043087034480178491C0170007858
:101B000008281AD1FFE73048002101702C4A1378C9
:101B10002E480578B34C6419A37511700178491CDF
:101B200001700078022807D1FFE7244902200870DD
:101B3000264900200870FFE7FFE732E020490878D7
:101B40004008087008787F22104008701D4800681F
:101B5000C2010878104308701B480178491C0170C5
:101B6000007808281AD1FFE7174800210170144AAD
:101B70001378164805789B4C64192374117001780A
:101B8000491C01700078062807D1FFE70B490320A4
:101B900008700E4900200870FFE7FFE701E000E051
:101BA000FFE700E0FFE7FFE7FFE70AB0B0BDC04690
:101BB000C0480040C4480040540100205A010020A1
:101BC00056010020CC480040570100205801002059
:101BD0006801002055010020590100205B01002010
:101BE0005C0100208E020020C848004088020020CE
:101BF000A802002010B584B0764800680190032840
:101C000000D9E3E001998A0001A080188746C04608
:101C100000F006B800F012B800F01FB800F04EB89F
:101C2000FFF754FD04F01AF804F09AF940F2D0706E
:101C300005F0A0F8674901200860C8E000F080F9CD
:101C40000246D248BF214254405C10B1FFE7FFE793
:101C5000FEE7604902200860B9E05F480178012092
:101C60004907C90F009031B9FFE75B4800780007CA
:101C7000C00F0090FFE700990122114002A80170F7
:101C800055490B789B069C0F631E9C4103782340AB
:101C90000370497803781940114001704F4A504948
:101CA00011600078C00720B1FFE74A4903200860AF
:101CB00003E0484902200860FFE7FFE703A900208E
:101CC0000870FFE703A8007804280ED8FFE703A9EF
:101CD0000A78AE48801880790A7848498854FFE726
:101CE0000398401C03A90870ECE703A900200870C2
:101CF000FFE703A8007804280ED8FFE703A90A78B5
:101D0000A2488018C07A0A783B498854FFE70398B4
:101D1000401C03A90870ECE703A900200870FFE746
:101D200003A8007805280ED8FFE703A90A7897488A
:101D30008018007C0A782F498854FFE70398401CDC
:101D400003A90870ECE703A900200870FFE703A8C7
:101D5000007801280ED8FFE703A90A788B4880187D
:101D6000807D0A7822498854FFE70398401C03A924
:101D70000870ECE700F00EF917480078C00758B17A
:101D8000FFE700F0DDF88149BF2288541249087846
:101D9000FE2210400870FFE71049114808600E4805
:101DA00000788007C00F10B1FFE7FFE7FEE70E489D
:101DB0000078C00748B1FFE70B49002008700B49C5
:101DC0000868424250410860FFE700E0FFE704B0C6
:101DD00010BDC046600100206401002008000440DE
:101DE000A55A0000680100209302002054490040D9
:101DF000A602002082020020980200209F020020FC
:101E000083B0029001916846028002990020088008
:101E10000299488002994872029A0121117202992E
:101E2000C872029988720299888100980299C881C3
:101E300001980299486003B0704782B00190009108
:101E40000198007AC00720B1FFE701990120C8720C
:101E5000FFE7019948680988405C0099087001997A
:101E60000888401C088001998889401E8881019952
:101E7000002048720198808920B9FFE7019901206C
:101E80000872FFE701990888C989884204DBFFE7E7
:101E9000019900200880FFE702B0704781B00090F0
:101EA0000099002008800099488000994872009AA3
:101EB000012111720099C872009988720099888175
:101EC00001B0704782B00190684601700198407A75
:101ED000C00720B1FFE7019901208872FFE7009851
:101EE000019A51685288885401994888401C48805A
:101EF00001998889401C8881019900200872019904
:101F00008889C989884204D1FFE701990120487274
:101F1000FFE701994888C989884204DBFFE70199F6
:101F200000204880FFE702B0704780B582B0019082
:101F300000910198FFF7BCF9019802B080BD000044
:101F400080B584B003A9002001900870FEF716FF49
:101F5000019845F60001FEF79DFE0C49C02288500D
:101F60000B480168481E814102A801700078C00733
:101F700020B1FFE703A90120087000E0FFE7FEF7AA
:101F800083FE03A8007804B080BDC046680100202D
:101F900064020020F0B591B0F7481090F7480F9018
:101FA000F74800788006800F03280BD1FFE700F088
:101FB0005BFC03F0CBFC03F053F900F0A5FA00F052
:101FC00047FB1CE0EE4800788006800F012809D10D
:101FD000FFE701F05FFD03F0BFFA02F0E1FF00F060
:101FE0000BFA0BE0F94800788006800F022803D135
:101FF000FFE700F0DBFB00E0FFE7FFE7FFE7F44867
:10200000007802280CD1FFE7EF490878FC22104045
:10201000801C08700878F3221040001D08701BE037
:10202000EC480078022805D0FFE7EB48007802284A
:1020300010D1FFE7E948008860B9FFE7E249087876
:10204000FC221040401C08700878F3221040083031
:10205000087000E0FFE7FFE7E148007802280CD1B4
:10206000FFE7D9490878CF2210402030087008785F
:102070003F221040403008701BE0DA480078022808
:1020800005D0FFE7D8480078022810D1FFE7D348F1
:10209000008860B9FFE7CC490878CF2210401030A3
:1020A000087008783F2210408030087000E0FFE799
:1020B000FFE7CE480078022805D0FFE7CC4800783B
:1020C000022807D1FFE7C0494878FC221040801C55
:1020D000487006E0BC494878FC221040401C48701B
:1020E000FFE7BA4801784907CB0F59424B410F9A95
:1020F0009178FE242140C918917001780907CB0F0F
:1021000059424B410F9A91785B01DF242140C91855
:10211000917000784006C00F30B9FFE7AB480078F7
:10212000C009012807D0FFE7A84840784007800F82
:10213000032800D0E8E010990878FC221040401CE9
:10214000087010990878F323184008300870109927
:102150000878CF24204010300870109908783F2369
:10216000184080300870109948781040401C487022
:102170000F990878FE270D97384008700F99087856
:102180000222104308700F990878FB26304008702F
:102190000F990878F725284008700F990878EF22E2
:1021A0000792104008700F99087820221043087099
:1021B0000F990878BF220B92104008700F99087889
:1021C0007F22104008700F994878384048700F9966
:1021D0004878FD27384048700F994878304048705B
:1021E0000F9948782840487007990F9800904078D8
:1021F0000840009948700F9801904078DF210991BC
:102200000840019948700B990F9802904078084057
:10221000029948700F994878104048700D990F98AE
:10222000039080780840039988700F998878384027
:1022300088700F998878304088700F998878284086
:10224000887007990F9804908078084004998870E6
:1022500009990F98059080780840059988700B9926
:102260000F98069080780840069988700F99C87872
:102270003840C8700F99C8783040C8700F99C87836
:102280002840C87007990F980890C07808400899AE
:10229000C87009990F980A90C07808400A99C870C8
:1022A0000B990F980C90C07808400C99C8700F9942
:1022B000C8781040C8700D990F980E9000790840AA
:1022C0000E9908710F990879384008710F990879AB
:1022D000304008710F990879284008710F990879E2
:1022E000204008710F990879184008710F99C87833
:1022F00001231843C8700F998878104088703D49B1
:1023000040F2D07008805DE0304800784006C00F91
:1023100038B3FFE72D480078C009012821D1FFE735
:102320000F9988788022104388703248008850B90D
:10233000FFE7304940F2D07008800F99C878FE223C
:102340001040C8700CE02B480088C0087C2806D8D4
:10235000FFE70F99C87801221043C870FFE7FFE735
:102360002FE01A4800784006C00FD0B1FFE71748A9
:102370000078C009A8B905E0A80200208E0200205C
:10238000640100201B4940F2D07008800F998878C2
:102390008022104388700F99C878FE221040C870C0
:1023A0000EE0144940F2D07008800F9988787F229F
:1023B000104088700F99C87801221043C870FFE759
:1023C000FFE7FFE711B0F0BDA80200206401002084
:1023D0003500002036000020370000205C0200207D
:1023E00032000020330000203400002030000020A4
:1023F000310000206802002083B0E6480290E848DF
:1024000001900198C0780321084002280FD1FFE70E
:10241000E448008858B9FFE702998878F72210400D
:1024200088700299C878BF221040C87000E0FFE7AA
:1024300034480078009040B1FFE70098012827D089
:10244000FFE7009802283ED058E001980078032169
:102450000840012804D1FFE72A49022008700CE057
:102460000198007803210840022804D1FFE725499C
:102470000120087000E0FFE7FFE702998878F72263
:10248000104088700299C878BF221040C87036E0AA
:102490000198007803210840012812D1FFE7029932
:1024A00088780822104388700299C8784022104327
:1024B000C870BC4940F2D0700880124902200870F0
:1024C00000E0FFE71BE001980078032108400228A4
:1024D00012D1FFE702998878082210438870029988
:1024E000C87840221043C870AE4940F2D0700880CE
:1024F00004490120087000E0FFE700E0FFE703B0B7
:102500007047C0466F02002010B587B0D4480690CF
:102510009F4805909F4804909F4803909F480290D1
:102520009F480190019840788006800F022818D1BA
:10253000FFE745480088A0B9FFE7049948787F2362
:102540001840487004990879F722104008710499DE
:102550000A79487812018024224018408018487077
:1025600000E0FFE739480078009040B1FFE70098AD
:10257000012830D0FFE70098022847D061E0019899
:10258000007803210840012804D1FFE72F490220E9
:1025900008700CE00198007803210840022804D15B
:1025A000FFE72A490120087000E0FFE7FFE70499F0
:1025B00048787F231840487004990879F722104022
:1025C000087104990A794878120180242240184041
:1025D0008018487036E001980078032108400128EF
:1025E00012D1FFE70499487880221043487004997B
:1025F0000879082210430871134940F2D07008800E
:1026000012490220087000E0FFE71BE00198007803
:1026100003210840022812D1FFE70499487880225C
:10262000104348700499087908221043087106493C
:1026300040F2D070088005490120087000E0FFE7F3
:1026400000E0FFE707B010BD60020020700200202C
:1026500010B587B0824806904D4805904D480490CB
:102660004D4803904D4802904D4801900198C07824
:1026700003210840022818D1FFE74A480088A0B982
:10268000FFE704998878F723184088700499C87880
:10269000BF221040C8700499CA788878D2080824EC
:1026A000224018408018887000E0FFE73E4800781C
:1026B000009040B1FFE70098012830D0FFE7009874
:1026C000022847D061E0019800780007800F0128B8
:1026D00004D1FFE73449022008700CE0019800782B
:1026E0000007800F022804D1FFE72F49012008705E
:1026F00000E0FFE7FFE704998878F7231840887027
:102700000499C878BF221040C8700499CA788878A4
:10271000D2080824224018408018887036E00198BA
:1027200000780007800F012812D1FFE7049988780C
:102730000822104388700499C87840221043C8705A
:10274000184940F2D070088017490220087000E054
:10275000FFE71BE0019800780007800F022812D1E4
:10276000FFE7049988780822104388700499C87894
:1027700040221043C8700B4940F2D07008800A49CB
:102780000120087000E0FFE700E0FFE707B010BDA0
:10279000A40200208E0200207C020020880200207B
:1027A0009F0200205E02002071020020F0B587B079
:1027B0002B4806902B48059005980378032001903C
:1027C0000340069A1078FC210840C0181070059844
:1027D0000378069A10780C2403942340F32738409A
:1027E000C018107005980378069A10783026334088
:1027F000CF252840C018107005980078069A0092DE
:102800001278C02420403F231A401218009802700A
:102810000198059A52780240069802904078084044
:102820000299801848700598427806994878049073
:102830000398024004983840801848700598427800
:1028400006994878324028408018487005984278A8
:1028500006994878224018408018487007B0F0BDAB
:10286000A802002098020020F0B5E3B0F94861907A
:10287000F9486090F9485F90F9485E90F9485D909A
:10288000F9485C90F9485B90F9485A90F94859909A
:10289000F9480078589050B1FFE75898012800D1C6
:1028A00081E05898022800D15FE101F0EDF85D99D0
:1028B0000878FC221040401C08705D990878F325C8
:1028C0002840001D08705D990878CF242040103002
:1028D00008705D9908783F231840403008705D9972
:1028E00048781040401C48705D9948782840001D89
:1028F00048705D9948782040103048705D9948785C
:102900001840403048705D9988781040401C8870AD
:102910005D9988782840001D88705D9988782040EE
:10292000103088705D9988781840803088705D9983
:10293000C8781040401CC8705D99C8782840001DB8
:10294000C8705D99C87820402030C8705D99C878FB
:1029500018408030C8705D9908791040401C08719B
:102960005D9908792840001D087161990878104028
:10297000401C0870619908782840083008706199F7
:10298000087820401030087061990878184080302D
:102990000870619948781040401C4870B649012081
:1029A000087001F072F85D98037803205790034097
:1029B0005E9A1078FC2156910840C01810705D98FE
:1029C00004785E9A10780C2354931C40F32318402B
:1029D000001910705D9804785E9A107830263440A3
:1029E000CF252840001910705D9800785E9C2278F1
:1029F000C027559738403F273A4012185798227001
:102A00005D9A547804405E9A5078084054990019B1
:102A100050705D9844785E9A50780C4055991840F3
:102A2000001950705D9844785E9A50783440284080
:102A3000001950705D9840785E9C62780840569905
:102A40003A401218579862705D9A947804405E9AE2
:102A5000907808405499001990705D9884785E9A37
:102A600090780C4055991840001990705D988478C2
:102A70005E9A907834402840001990705D98807874
:102A80005E9CA278084056993A4012185798A27056
:102A90005D9AD47804405E9AD07808405499001921
:102AA000D0705D98C4785E9AD0780C4055991840E3
:102AB0000019D0705D98C4785E9AD0783440284070
:102AC0000019D0705D98C0785E9CE27808405799F4
:102AD0003A4012185698E2705D9A14790C405E9A4A
:102AE000117901405498091911715D990C795E9A18
:102AF0001179044055981940569B091911715D9937
:102B00000C795E9A117934402940091911715D9947
:102B10000C795E9A1179044057983940091911715E
:102B20005D994C7904405E9A5179194009195171A7
:102B300061990C780440609A117819400919117054
:102B400061990C78609A1178344029400919117004
:102B500061994A7802406099487818408018487016
:102B600045490220087000F090FF5C98007800074B
:102B7000810F00200229539034D1FFE75C98007840
:102B80008006810F0020022953902BD1FFE75C982B
:102B900080788006810F00200229539022D1FFE720
:102BA0005C98807881090020022953901AD1FFE7B0
:102BB0005E9800780007810F00200229539011D100
:102BC000FFE75E980178032001400020022953901E
:102BD00008D1FFE75C98C0788009801E41424841D7
:102BE0005390FFE75398C10702200122519252905F
:102BF00009B9519852905298204908705C98007811
:102C00000007810F00200229509042D1FFE75C9815
:102C100000788006810F00200229509039D1FFE70B
:102C20005C9880788006810F00200129509030D177
:102C3000FFE75C988078810900200129509028D115
:102C4000FFE75E980078810900200129509020D18B
:102C500016E0C046A8020020A40200208E02002038
:102C60007C020020880200209F02002098020020A1
:102C700082020020A60200207202002035000020FF
:102C80005E9800780007800F401E414248415090F6
:102C9000FFE75098C107022001224E924F9009B9D8
:102CA0004E984F904E984F99F54A1170F54908701B
:102CB0005C98017803200140002002294D9068D1E2
:102CC000FFE75C9800788109002002294D9060D1CF
:102CD000FFE75C98817803200140002002294D9095
:102CE00057D1FFE75C9880788109002001294D9039
:102CF0004FD1FFE75C98C0780007810F00200129C1
:102D00004D9046D1FFE75E984178032001400020B6
:102D100002294D903DD1FFE75E988078810900201F
:102D200002294D9035D1FFE75E9880788006810FAB
:102D3000002001294D902CD1FFE75E9840780007D4
:102D4000810F002002294D9023D1FFE75E98007982
:102D50000007810F002001294D901AD1FFE75E98EE
:102D6000C0788109002001294D9012D1FFE75E98BB
:102D7000C0788006810F002001294D9009D1FFE71E
:102D80005C98007903210840801E414248414D90E3
:102D9000FFE74D98C107022001224B924C9009B9E0
:102DA0004B984C904C98B84908705C980178032077
:102DB0000140002002294A9035D1FFE75C98007855
:102DC0008109002002294A902DD1FFE75C98C07844
:102DD0000007810F002001294A9024D1FFE75E9867
:102DE000417803200140002001294A901BD1FFE7D0
:102DF0005E9880788006810F002002294A9012D1C7
:102E0000FFE75E9840780007810F002002294A9072
:102E100009D1FFE75E9800790007800F801E4142CC
:102E200048414A90FFE74A98C10702200122489290
:102E3000499009B9489849904998944908705C9814
:102E400001780320014000200229479035D1FFE797
:102E50005C98007881090020022947902DD1FFE776
:102E60005C98C0780007810F00200129479024D189
:102E7000FFE75E9841780320014000200129479038
:102E80001BD1FFE75E9880788006810F0020012922
:102E9000479012D1FFE75E9840780007810F00202D
:102EA0000229479009D1FFE75E98C0788006800F1D
:102EB000801E414248414790FFE74798C1070220E2
:102EC00001224592469009B9459846904698704926
:102ED00008705C9800780007810F00200229449058
:102EE0001BD1FFE75C9840780007810F0020022982
:102EF000449012D1FFE76098017803200140002040
:102F00000229449009D1FFE75E9800780007800FFE
:102F1000801E414248414490FFE74498C107022087
:102F200001224292439009B94298439043985949EB
:102F300008705C9800780007810F002002294190FA
:102F40001BD1FFE75C9840780007810F0020022921
:102F5000419012D1FFE75C9800790007810F0020B3
:102F60000229419009D1FFE76098007803210840C9
:102F7000801E414248414190FFE74198C10702202D
:102F800001223F92409009B93F98409040984249B1
:102F900008705C9800780007810F002002293E909D
:102FA0002BD1FFE75C9800788006810F0020022972
:102FB0003E9022D1FFE75C9880788006810F002048
:102FC00002293E9019D1FFE75C98807881090020A2
:102FD00002293E9011D1FFE760980178032001405B
:102FE000002001293E9008D1FFE75C98C078800955
:102FF000801E414248413E90FFE73E98C1070220B3
:1030000001223C923D9009B93C983D903D9A5D99D2
:103010000878FC23184080180870599800788006BA
:10302000810F002002293B9010D1FFE75A98807849
:103030008109002002293B9008D1FFE75C98C07805
:103040008009801E414248413B90FFE73B98C10701
:103050000820042239923A9009B939983A903A9A5C
:103060005D990878F3231840801808705998007803
:103070008006810F00200229389017D10EE0C0464B
:1030800036000020370000203200002033000020EE
:103090003400002030000020310000205B980078D0
:1030A0008009801E414248413890FFE73898C107A7
:1030B000802040223692379009B936983790379A57
:1030C0005D9908783F231840801808705A98017855
:1030D0000320329001403391012034900229359031
:1030E00001D1339835903498359B5D9A5178FC2402
:1030F0002140C91851705B9909788906890F309170
:103100000229319001D1309831903298319B5D9AEB
:1031100051789B00F3242140C91851705C990978BB
:103120000140002002292F903CD1FFE75C980078F5
:103130008109002002292F9034D1FFE75C98807824
:103140008109002002292F902CD1FFE75C98C078DC
:103150000007810F002002292F9023D1FFE75E98FE
:1031600040780007810F002002292F901AD1FFE735
:103170005E98417903200140002002292F9011D14F
:10318000FFE7609800788006810F002002292F90C9
:1031900008D1FFE75C98C0788009801E4142484111
:1031A0002F90FFE72F9A0120024062A90A70097848
:1031B000C9072E90F1B9FFE75C9801780320014020
:1031C000002002292D9012D1FFE75E9880788006BA
:1031D000810F002002292D9009D1FFE76098007827
:1031E0008006800F801E414248412D90FFE72D98B8
:1031F0002E90FFE72E990120014062A8017000780F
:10320000C107202010222B922C9009B92B982C90CA
:103210002C9A5D998878CF231840801888705C9824
:10322000017803200140002002292A9012D1FFE7F3
:103230005E9880788006810F002001292A9009D1AC
:10324000FFE7609800788006800F401E41424841A9
:103250002A90FFE72A9A0120024062A90A700978A1
:10326000C9072990E9B9FFE75C980178032001407C
:1032700000200229289011D1FFE75E98807881090B
:1032800000200229289009D1FFE75E988078800607
:10329000800F401E414248412890FFE7289829901E
:1032A000FFE729990120014062A801700078C10759
:1032B000802040222692279009B926982790279AA5
:1032C0005D9988783F231840801888705C98017851
:1032D000032001400020022925901AD1FFE75E98C3
:1032E0008078810900200129259012D1FFE75E989E
:1032F000C0780007810F00200129259009D1FFE740
:10330000609800788006800F801E414248412590D9
:10331000FFE7259A0120024062A90A700978C907CF
:10332000249039BBFFE75C9800780007810F0020EC
:10333000022923901BD1FFE75E9800780007810FD8
:1033400000200129239012D1FFE75E98C078000782
:10335000810F00200129239009D1FFE760980078B0
:1033600003210840801E414248412390FFE72398F3
:103370002490FFE7249901202190014062A8017068
:103380000078C1070220229009B921982290229A40
:103390005D99C878FC2318408018C8705C98017843
:1033A000032001400020022920901AD1FFE75E98F7
:1033B0008078810900200129209012D1FFE75E98D2
:1033C000C1780320014000200229209009D1FFE7A5
:1033D000609800788006800F801E4142484120900E
:1033E000FFE7209A0120024062A90A700978C90704
:1033F0001F9039BBFFE75C9800780007810F002021
:1034000002291E901BD1FFE75E9800780007810F0C
:10341000002001291E9012D1FFE75E98C178032099
:103420000140002002291E9009D1FFE76098007832
:1034300003210840801E414248411E90FFE71E982C
:103440001F90FFE71F990120014062A801700078DA
:10345000C107082004221C921D9009B91C981D90D8
:103460001D9A5D99C878F32318408018C8705C983D
:1034700040788109002002291B9019D1FFE75C9850
:10348000817803200140002001291B9010D1FFE723
:103490005E9880788109002001291B9008D1FFE700
:1034A0005E98C0788009801E414248411B90FFE72A
:1034B0001B9A0120024062A90A700978C9071A9074
:1034C000A1B9FFE75E988078810900200129199051
:1034D00009D1FFE75E98C0788006800F801E4142C8
:1034E00048411990FFE719981A90FFE71A990120AF
:1034F000014062A801700078C107202010221792B5
:10350000189009B917981890189A5D99C878CF2320
:1035100018408018C8705C98817803200140002012
:103520000229169012D1FFE75E98C0788006810FBD
:1035300000200129169009D1FFE7609800788006E5
:10354000800F801E414248411690FFE7169A0120E5
:10355000024062A90A700978C907159099B9FFE776
:103560005C984078810900200129149008D1FFE778
:103570005E98C0788009801E414248411490FFE760
:1035800014981590FFE715990120014062A8017079
:103590000078C107802040221292139009B9129836
:1035A0001390139A5D99C8783F2318408018C8700B
:1035B000FA48018800200A29119006D8FFE7F74849
:1035C0000088411E88411190FFE71198C10708202B
:1035D00004220F92109009B90F981090109A5D99DB
:1035E0000879F323184080180871ED480078022804
:1035F00004D1FFE7EA490020087000E0FFE7609887
:1036000000788006810F02200C9001220D92012982
:103610000E9001D00D980E900D980E9B5D9A117929
:103620001B01CF242140C91811715B9909788906C3
:10363000890F0A9102290B9001D10A980B900C98DE
:103640000B9B5D9A5179FC242140C91851716099F6
:103650000978032211400129099001D00D980990A1
:10366000099A5D99087992013F23184080180871E2
:103670005E9880788006800F821E504242415F999A
:103680000878FE231840801808705C9800780007BE
:10369000810F00200129089009D1FFE76098007888
:1036A00003210840801E414248410890FFE7089AE4
:1036B0005F990878D207920FFD2318408018087090
:1036C0005C9800780007810F00200129079009D13C
:1036D000FFE76098007803210840801E414248417E
:1036E0000790FFE7079A5F990878D207520FFB23EC
:1036F0001840801808705C98017803200140002071
:103700000129069009D1FFE7609800788006800FB4
:10371000801E414248410690FFE7069A5F9908786B
:10372000D207920EDF231840801808705C98017849
:103730000320014000200129059009D1FFE760988E
:1037400000788006800F801E414248410590FFE7C7
:10375000059A5F990878D207520EBF231840801847
:1037600008705C98C0788009821E504242415F997F
:103770004878D200F723184080184870599840784C
:1037800003210840421E504242415F99487812018D
:10379000EF231840801848705C9800790007800F6C
:1037A000421E504242415F9948785201DF2318403F
:1037B000801848705C9800780007810F002002296B
:1037C00004903DD1FFE75C9800788006810F0020CF
:1037D0000229049034D1FFE75B980078810900202A
:1037E000022904902CD1FFE75B98407881090020E2
:1037F0000229049024D1FFE75B98817803200140DF
:103800000020022904901BD1FFE75C980079000793
:10381000810F00200129049012D1FFE75998007808
:103820008006810F00200129049009D1FFE76098EC
:10383000007803210840401E414248410490FFE7C0
:10384000049A5F994878D207520EBF231840801817
:1038500048705C9800798006810F0020022903904F
:1038600008D1FFE75C98C0788009401E414248417A
:103870000390FFE7039A5F998878D207920FFD249F
:103880002040801888705C98C0788009821E504261
:1038900042415F9988789200FB2318408018887015
:1038A0005C9800798009821E504242415F99887875
:1038B0009201BF252840801888705C980079000725
:1038C000800F421E504242415F99C878520020400A
:1038D0008018C8705C9800790007800F821E5042E3
:1038E00042415F99C878920018408018C8705C986F
:1038F00000780007800F821E504242415F99C878CD
:10390000D200F72318408018C8705C980078000730
:10391000800F421E504242415F99C8781201EF2346
:1039200018408018C8705B988078810900200229AF
:10393000029008D1FFE75B98C0788009801E414261
:1039400048410290FFE7029A5F99C878D207920E29
:10395000DF2318408018C8705C980178032001406C
:1039600000200229019041D1FFE75B980078800692
:10397000810F00200229019038D1FFE75C98007880
:10398000810900200229019030D1FFE75C9840783E
:10399000810900200229019028D103E05C02002067
:1039A0006E0200205C9881780320014000200229EB
:1039B00001901BD1FFE75B9800790007810F002081
:1039C0000129019012D1FFE7609800788006810FED
:1039D00000200129019009D1FFE7599800780321BF
:1039E0000840401E414248410190FFE7019A5F991B
:1039F000C878D2017F2318408018C8705C9800787E
:103A000003210840831E584243415F9A1079FE24E7
:103A10002040C01810715C9800780840421E504247
:103A200042415F9908795200FD23184080180871BF
:103A30005C980078810900200229009009D1FFE7F5
:103A40005B9800790007800F401E4142484100907A
:103A5000FFE7009A5F998878D207D20EEF231840CB
:103A6000801888705C98007903210840421E501E1F
:103A700082415F9908799200FB23184080180871F1
:103A800003490120087000E0FFE763B0F0BDC046C5
:103A900072020020F0B5E3B0F3486190F348609003
:103AA000F3485F90F3485E90F3485D90F3485C9074
:103AB000F3485B90F3485A90F3485990F3480078E4
:103AC000589050B1FFE75898012800D181E05898EC
:103AD000022800D15FE101F05EFA5D990878FC22CE
:103AE0001040401C08705D990878F3252840001D9F
:103AF00008705D990878CF242040103008705D99D7
:103B000008783F231840403008705D99487810408D
:103B1000401C48705D9948782840001D48705D99A8
:103B200048782040103048705D99487818404030FF
:103B300048705D9988781040401C88705D9988783D
:103B40002840001D88705D9988782040103088706A
:103B50005D9988781840803088705D99C8781040E9
:103B6000401CC8705D99C8782840001DC8705D99D8
:103B7000C87820402030C8705D99C87818408030DF
:103B8000C8705D9908791040401C08715D990879EA
:103B90002840001D0871619908781040401C087089
:103BA00061990878284008300870619908782040A9
:103BB0001030087061990878184080300870619959
:103BC00048781040401C4870B0490120087001F04E
:103BD000E3F95D9803780320579003405E9A1078CC
:103BE000FC2156910840C01810705D9804785E9AC8
:103BF00010780C2354931C40F323184000191070C4
:103C00005D9804785E9A107830263440CF2528409D
:103C1000001910705D9800785E9C2278C027559737
:103C200038403F273A401218579822705D9A5478CE
:103C300004405E9A507808405499001950705D987D
:103C400044785E9A50780C4055991840001950708D
:103C50005D9844785E9A507834402840001950703E
:103C60005D9840785E9C6278084056993A401218F8
:103C7000579862705D9A947804405E9A90780840F4
:103C80005499001990705D9884785E9A90780C40F1
:103C900055991840001990705D9884785E9A9078D4
:103CA00034402840001990705D9880785E9CA2781E
:103CB000084056993A4012185798A2705D9AD478E5
:103CC00004405E9AD078084054990019D0705D98ED
:103CD000C4785E9AD0780C40559918400019D0707D
:103CE0005D98C4785E9AD078344028400019D0702E
:103CF0005D98C0785E9CE278084057993A40121867
:103D00005698E2705D9A14790C405E9A11790140E0
:103D10005498091911715D990C795E9A11790440D2
:103D200055981940569B091911715D990C795E9A45
:103D3000117934402940091911715D990C795E9A05
:103D40001179044057983940091911715D994C79DE
:103D500004405E9A517919400919517161990C78A2
:103D60000440609A117819400919117061990C7812
:103D7000609A1178344029400919117061994A7884
:103D80000240609948781840801848703F490220E6
:103D9000087001F001F95C980178032001400020CF
:103DA000022953907CD1FFE75C9800788006810F50
:103DB00000200229539073D1FFE75C9800788109B5
:103DC0000020022953906BD1FFE75C980078000730
:103DD000810F00200229539062D1FFE75C98807820
:103DE0008006810F00200229539059D1FFE75C988B
:103DF0008078810900200229539051D1FFE75C9817
:103E0000C0780007810F00200129539048D1FFE7B7
:103E10005E9800780007810F0020022953903FD15F
:103E2000FFE75E98017803200140002002295390AB
:103E300036D1FFE75E984178032001400020012938
:103E400053902DD1FFE75E988078810900200229E8
:103E5000539025D1FFE7609800788006810F0020FD
:103E6000012953901CD113E0A8020020A4020020D5
:103E70008E0200207C020020880200209F02002089
:103E80009802002082020020A60200207302002077
:103E90005C98C0788009801E414248415390FFE7FA
:103EA0005398C107022001225192529009B95198AA
:103EB00052905298FA4908705C98017803200140AA
:103EC00000200229509000D081E05C9800788006A4
:103ED000810F00200229509079D1FFE75C9800788B
:103EE000810900200229509071D1FFE75C98007889
:103EF0000007810F00200229509068D1FFE75C98ED
:103F000080788006810F0020012950905FD1FFE763
:103F10005C988078810900200129509057D1FFE7F3
:103F20005C98C0780007810F0020012950904ED185
:103F3000FFE75E980078810900200229509046D161
:103F4000FFE75E9800780007810F0020012950905C
:103F50003DD1FFE75E984178032001400020012910
:103F6000509034D1FFE75E9880788006810F002062
:103F7000012950902BD1FFE75E9840780007810F10
:103F800000200229509022D1FFE75E9800790007B7
:103F9000810F00200129509019D1FFE75E98C07869
:103FA000810900200129509011D1FFE75E98C07867
:103FB0008006810F00200129509008D1FFE75C980E
:103FC000C0788009801E414248415090FFE75098D8
:103FD000C107022001224E924F9009B94E984F908E
:103FE0004E984F99AF4A1170AF4908705C980178AC
:103FF00003200140002002294D9000D0A3E05C98EE
:1040000000788006810F002002294D9000D09AE0B0
:104010005C9800788109002002294D9000D092E040
:104020005C9840788109002002294D9000D08AE0F8
:104030005C98817803200140002002294D9000D037
:1040400081E05C9800780007810F002002294D90E4
:1040500079D1FFE75C9880788006810F00200129E4
:104060004D9070D1FFE75C9880788109002001298C
:104070004D9068D1FFE75C98C0780007810F002061
:1040800001294D905FD1FFE75E98007881090020FB
:1040900002294D9057D1FFE75E9800780007810F05
:1040A000002001294D904ED1FFE75E984178032012
:1040B0000140002002294D9045D1FFE75E988078AD
:1040C0008109002002294D903DD1FFE75E9880785C
:1040D0008006810F002001294D9034D1FFE75E98C2
:1040E00040780007810F002002294D902BD1FFE777
:1040F0005E9800790007810F002001294D9022D1A0
:10410000FFE75E98C0788109002001294D901AD1FF
:10411000FFE75E98C0788006810F002001294D904E
:1041200011D1FFE7609801780320014000200129A8
:104130004D9008D1FFE75C98C0788009801E41420D
:1041400048414D90FFE74D98C107022001224B9254
:104150004C9009B94B984C904C98544908705C9815
:10416000017803200140002002294A9071D1FFE725
:104170005C9800788006810F002002294A9068D15F
:10418000FFE75C9800788109002002294A9060D1FD
:10419000FFE75C9800780007810F002002294A9011
:1041A00057D1FFE75C9880788006810F00200129B5
:1041B0004A904ED1FFE75C98807881090020012960
:1041C0004A9046D1FFE75C98C0780007810F002035
:1041D00001294A903DD1FFE75E98007881090020CF
:1041E00002294A9035D1FFE75E9800780007810FD9
:1041F000002001294A902CD1FFE75E9841780320E6
:104200000140002001294A9023D1FFE75E98807881
:104210008006810F002002294A901AD1FFE75E989C
:1042200040780007810F002002294A9011D1FFE752
:104230005E9800790007810F002002294A9008D17A
:10424000FFE75C98C0788009801E414248414A904F
:10425000FFE74A98C107022001224892499009B914
:10426000489849904998124908705C980178032051
:1042700001400020022947907CD1FFE75C9800783C
:104280008006810F00200229479073D1FFE75C98D8
:10429000007881090020022947906BD10AE0C046CE
:1042A00035000020360000203700002032000020BA
:1042B000330000205C9800780007810F002002295D
:1042C000479057D1FFE75C9880788006810F0020E7
:1042D000012947904ED1FFE75C9880788109002042
:1042E0000129479046D1FFE75C98C0780007810F0D
:1042F0000020012947903DD1FFE75E9800788109B1
:1043000000200229479035D1FFE75E98007800072A
:10431000810F0020012947902CD1FFE75E9841785A
:104320000320014000200129479023D1FFE75E9838
:1043300080788006810F0020012947901AD1FFE77D
:104340005E9840780007810F00200229479011D124
:10435000FFE75E98C0788006810F00200229479011
:1043600008D1FFE75C98C0788009801E414248412F
:104370004790FFE74798C1070220012245924690E7
:1043800009B9459846904698F74908705C980178B5
:104390000320014000200229449024D1FFE75C98CB
:1043A00000780007810F0020022944901BD1FFE70D
:1043B0005E9800780007810F00200229449012D1F6
:1043C000FFE7609801780320014000200229449013
:1043D00009D1FFE75C9840780007800F801E4142BA
:1043E00048414490FFE74498C107022001224292CD
:1043F000439009B9429843904398DC4908705C980F
:1044000001780320014000200229419012D1FFE7EA
:104410005C9841780320014000200229419009D195
:10442000FFE76098007803210840801E4142484120
:104430004190FFE74198C107022001223F9240903E
:1044400009B93F9840904098C94908705C98017834
:1044500003200140002002293E905FD1FFE75C98D5
:1044600000788006810F002002293E9056D1FFE798
:104470005C9800788109002002293E904ED1FFE728
:104480005C9800780007810F002002293E9045D1FA
:10449000FFE75C9880788006810F002002293E901B
:1044A0003CD1FFE75C9880788109002002293E908A
:1044B00034D1FFE75C98C0780007810F0020012904
:1044C0003E902BD1FFE75E98417803200140002009
:1044D00001293E9022D1FFE75E9880788109002073
:1044E00002293E901AD1FFE7609800788006810F7C
:1044F000002001293E9011D1FFE760980178032048
:104500000140002001293E9008D1FFE75C98C07867
:104510008009801E414248413E90FFE73E98C10716
:10452000022001223C923D9009B93C983D903D9A71
:104530005D990878FC231840801808705998007815
:104540008006810F002002293B903ED1FFE7599859
:10455000017803200140002001293B9035D1FFE77D
:104560005B9800788006810F002002293B902CD1B7
:10457000FFE75B9800780007810F002002293B903D
:1045800023D1FFE75A9880788109002002293B90C7
:104590001BD1FFE75A9800780007810F00200129FE
:1045A0003B9012D1FFE7599800788006810F0020D8
:1045B00002293B9009D1FFE7599800780321084070
:1045C000401E414248413B90FFE73B98C10708200D
:1045D000042239923A9009B939983A903A9A5D99F9
:1045E0000878F323184080180870599800788006DE
:1045F000810F00200129389011D1FFE75B980078E6
:10460000810900200229389009D1FFE759980078E4
:104610008006800F401E414248413890FFE738989D
:10462000C107802040223692379009B936983790DA
:10463000379A5D9908783F231840801808705A9877
:10464000017803200140349101200229359001D1E5
:1046500034983590359A5D994878FC231840801835
:1046600048705B9800788006810F00200229339003
:1046700009D1FFE75B9800780007800F801E414258
:1046800048413390FFE73398C10708200422319254
:10469000329009B931983290329A5D994878F32373
:1046A0001840801848705C98017803200140002071
:1046B000022930904DD1FFE75C9800788006810F89
:1046C00000200229309044D1FFE75C9800788109EE
:1046D0000020022930903CD1FFE75C988078810966
:1046E00000200229309034D1FFE75C98C0780007A1
:1046F000810F0020022930902BD1FFE75E980078CF
:10470000810900200229309023D1FFE75E9840788C
:104710000007810F0020022930901AD1FFE75E9830
:1047200041790320014000200229309011D1FFE798
:10473000609800788006810F00200229309008D10F
:10474000FFE75C98C0788009801E41424841309064
:10475000FFE7309A0120024062A90A700978C90770
:104760002F9069BB06E0C0463400002030000020D6
:10477000310000205C9801780320014000200229CC
:104780002E901AD1FFE75E9880788006810F002076
:1047900002292E9011D1FFE7609800788006810FE2
:1047A000002002292E9008D1FFE75C98C07880098C
:1047B000801E414248412E90FFE72E982F90FFE740
:1047C0002F990120014062A801700078C1072020C4
:1047D00010222C922D9009B92C982D902D9A5D992C
:1047E0008878CF231840801888705C98017803205F
:1047F0000140002002292B901AD1FFE75E988078B3
:104800008006810F002001292B9011D1FFE75E98CF
:1048100000798109002002292B9009D1FFE75E98D9
:1048200000798006800F801E414248412B90FFE7AF
:104830002B9A0120024062A90A700978C9072A90C0
:10484000E9B9FFE75C9801780320014000200229C4
:10485000299011D1FFE75E98807881090020022914
:10486000299009D1FFE75E9880788006800F401E6E
:10487000414248412990FFE729982A90FFE72A9969
:104880000120014062A801700078C1078020402209
:104890002792289009B927982890289A5D998878B6
:1048A0003F231840801888705C98017803200140ED
:1048B0000020022926901AD1FFE75E9880788109AE
:1048C00000200129269012D1FFE75E98C0780007EA
:1048D000810F00200129269009D1FFE76098007818
:1048E0008006800F801E414248412690FFE7269AAD
:1048F0000120024062A90A700978C907259039BBD6
:10490000FFE75C98017803200140002002292490F1
:104910001BD1FFE75E9800780007810F0020012976
:10492000249012D1FFE75E98C0780007810F002025
:104930000129249009D1FFE76098007803210840FD
:10494000801E414248412490FFE724982590FFE7CC
:10495000259901202290014062A801700078C107CA
:104960000220239009B922982390239A5D99C87850
:10497000FC2318408018C8705C980178032001401F
:104980000020022921901AD1FFE75E9880788109E2
:1049900000200129219012D1FFE75E98C178032001
:1049A000014000200229219009D1FFE7609800789A
:1049B0008006800F801E414248412190FFE7219AE6
:1049C0000120024062A90A700978C907209039BB0A
:1049D000FFE75C98017803200140002002291F9026
:1049E0001BD1FFE75E9800780007810F00200129A6
:1049F0001F9012D1FFE75E98C1780320014000208C
:104A000002291F9009D1FFE7609800780321084030
:104A1000801E414248411F90FFE71F982090FFE70A
:104A200020990120014062A801700078C107082088
:104A300004221D921E9009B91D981E901E9A5D9920
:104A4000C878F32318408018C8705C9840788109B2
:104A5000002002291C9019D1FFE75C98817803207F
:104A60000140002001291C9010D1FFE75E9880785A
:104A70008109002001291C9008D1FFE75E98C078C9
:104A80008009801E414248411C90FFE71C9A01208A
:104A9000024062A90A700978C9071B90A1B9FFE713
:104AA0005E9880788109002001291A9009D1FFE7DA
:104AB0005E98C0788006800F801E414248411A905F
:104AC000FFE71A981B90FFE71B990120014062A89D
:104AD00001700078C107202010221892199009B99E
:104AE00018981990199A5D99C878CF2318408018A2
:104AF000C8705C988178032001400020022917903B
:104B000012D1FFE75E98C0788006810F002001294E
:104B1000179009D1FFE7609800788006800F801E0B
:104B2000414248411790FFE7179A0120024062A9CD
:104B30000A700978C907169099B9FFE75C98407820
:104B4000810900200129159008D1FFE75E98C078FF
:104B50008009801E414248411590FFE71598169044
:104B6000FFE7169901201290014062A801700078B9
:104B7000C107802040221392149009B91398149011
:104B80001298149B5D9AD1783F242140C918D170A6
:104B90005E9989788906890F10910229119001D1B7
:104BA00010981190119A5D9908799200F32318409A
:104BB00080180871609800788006810F0220012912
:104BC0000F9001D012980F900F9A5D9908791201F9
:104BD000CF231840801808715B9800788006810FF9
:104BE000002002290E9009D1FFE75B9800780007AA
:104BF000800F801E414248410E90FFE70E98C1078A
:104C000002200B9001220C920D9009B90C980D9086
:104C10000B980D9B5D9A5179FC242140C918517164
:104C20006099097803220992114001290A9001D064
:104C30000C980A9009990A9B5D9A10799B013F2470
:104C40002040C01810715E9880788006800F831E07
:104C5000584243415F9A1078FE242040C0181070DB
:104C60005C9800780840012809D1FFE76098017836
:104C70000320014001200229089015D0FFE75C982D
:104C800000780007810F00200129079009D1FFE774
:104C90005C98007803210840401E4142484107903B
:104CA000FFE707980890FFE7089A5F990878D2070E
:104CB000920FFD231840801808705C98007803213B
:104CC0000840012809D1FFE76098017803200140DE
:104CD00001200229069015D0FFE75C9800780007B4
:104CE000810F00200129059009D1FFE75C98007829
:104CF00003210840401E414248410590FFE70598C6
:104D00000690FFE7069A5F990878D207520FFB23B7
:104D10001840801808705C9801780320014000203A
:104D20000129049009D1FFE7609800788006800F80
:104D3000801E414248410490FFE7049A5F99087839
:104D4000D207920EDF242040801808705B9801780B
:104D5000032001404B1E59424B415F9A11789B0141
:104D6000BF252940C91811705C99C97889098B1E23
:104D700059424B415F9A5178DB00F7252940C91809
:104D800051705999497801404B1E59424B415F9AE5
:104D900051781B01EF252940C91851705C99497859
:104DA00001404B1E59424B415F9A51785B012140B3
:104DB000C91851705C9909780140002002290390BC
:104DC00046D1FFE75C9800788006810F0020022919
:104DD00003903DD1FFE75C9800788109002002290B
:104DE000039035D1FFE75C984078810900200229C3
:104DF00003902DD1FFE75C988178032001400020CB
:104E00000229039024D1FFE75C98417803200140F8
:104E10000020012903901BD1FFE7609800788006ED
:104E2000810F00200129039012D1FFE75C980078E0
:104E30000007810F00200229039009D1FFE7609845
:104E4000007803210840401E414248410390FFE79B
:104E5000039A5F994878D207520EBF2318408018F2
:104E600048705C9800798006810F0020022902902A
:104E700009D1FFE75C98007903210840401E4142B8
:104E800048410290FFE7029A5F998878D207920F13
:104E9000FD231840801888705C9800790321084031
:104EA000821E504242415F9988789200FB2318404D
:104EB000801888705F998878EF22104088705C981D
:104EC000C078810900200229019009D1FFE75C9890
:104ED00000790007800F801E414248410190FFE7A2
:104EE000019A5F998878D207520EBF231840801824
:104EF00088705C98407803210840431E5842434123
:104F00005F9AD0785B00FD242040C018D0705C9878
:104F100040780840831E584243415F9AD0789B00F6
:104F2000FB242040C018D0705C9800780840831E95
:104F3000584243415F9AD078DB00F7242040C018E4
:104F4000D0705C9800780840421E504242415F9900
:104F5000C8781201EF2318408018C8705B988078D9
:104F6000810900200229009008D1FFE75B98C078F2
:104F70008009801E414248410090FFE7009A5F99F6
:104F8000C878D207920EDF2318408018C8700349F2
:104F90000120087000E0FFE763B0F0BD730200205D
:104FA00085B0A7480490A7480390A7480290A74857
:104FB0000190A74800780090042800D93DE10099AD
:104FC0008A0001A08018874600F008B800F051B8A8
:104FD00000F06CB800F0ACB800F011B99F48008840
:104FE00050B3FFE79B48008828BBFFE70399087888
:104FF000C20953425A41D2017F23184080180870D9
:1050000003994878012302461A4053425A41FE232D
:10501000184080184870039948788207D20F53428D
:105020005A415200FD23184080184870894940F2C7
:10503000E8300880FFE71BE0049800788006800FC6
:10504000012813D1FFE7039908787F2210400870E8
:1050500003994878FE221040487003994878FD2251
:10506000104048707A490120087000E0FFE7FFE730
:10507000E4E0049800788006800F022815D1FFE74D
:10508000029800780321084002280ED1FFE7039917
:105090000878802210430870039948780122104351
:1050A00048706B4902200870FFE7C7E00498007859
:1050B0008006800F022815D1FFE7029800780321AF
:1050C000084001280ED1FFE7039908787F2210409D
:1050D000087003994878FE22104048705C4903200C
:1050E0000870FFE70298C0780007800F02280AD1F5
:1050F000FFE7029880788009022804D1FFE756492B
:1051000001200870FFE70198C0788006800F022810
:105110000DD1FFE75048007848B1FFE74F497820AC
:1051200008804D490020087049490870FFE785E074
:10513000049800788006800F02284BD1FFE7029880
:10514000007803210840022844D1FFE74148008845
:10515000D0B9FFE703990878C20953425A41D201F6
:105160007F2318408018087003994878012302466D
:105170001A4053425A41FE23184080184870F349A0
:1051800040F2E8300880FFE70298C0780007800FFF
:1051900002280AD1FFE7029880788009022804D10A
:1051A000FFE72D4901200870FFE70198C0788006CD
:1051B000800F02280DD1FFE72748007848B1FFE7AC
:1051C000E4497820088024490020087020490870AC
:1051D000FFE713E0049800788006800F01280BD1C8
:1051E000FFE70298007803210840022804D1FFE776
:1051F00017490420087000E0FFE7FFE71EE004986D
:1052000000788006800F012815D1FFE7029800780A
:105210000321084002280ED1FFE7039908787F2276
:105220001040087003994878FE22104048700849E1
:105230000020087000E0FFE700E0FFE705B07047DE
:10524000A40200208E0200209F020020980200206D
:10525000750200206A020020740200205C02002017
:1052600088B0B2480790B2480690B2480590B2485C
:105270000490B2480390B2480290B2480190B248FC
:1052800000780090042800D94DE100998A0001A01F
:105290008018874600F008B800F051B800F072B8E6
:1052A00000F0B2B800F01DB9AA48008850B3FFE77B
:1052B000A648008828BBFFE705990878C209534231
:1052C0005A41D2017F231840801808700599487808
:1052D000012302461A4053425A41FE2318408018C7
:1052E0004870059948788207D20F53425A415200BC
:1052F000FD23184080184870944940F2E830088037
:10530000FFE71BE0069800788006800F012813D184
:10531000FFE7059908787F221040087005994878C2
:10532000FE221040487005994878FD2210404870D0
:1053300085490120087000E0FFE7FFE7F4E00698E8
:1053400000788006800F02281BD1FFE702980078C2
:1053500003210840022814D1FFE70599087880222C
:105360001043087005994878012210434870764927
:105370000220087005990879CF221040103008717A
:10538000FFE7D1E0069800788006800F022815D14B
:10539000FFE7029800780321084001280ED1FFE7BB
:1053A000059908787F221040087005994878FE22F8
:1053B00010404870644903200870FFE70298C078E5
:1053C0000007800F02280AD1FFE702988078800941
:1053D000022804D1FFE75E4901200870FFE7019829
:1053E000C0788006800F02280DD1FFE7584800786A
:1053F00048B1FFE7574978200880554900200870D8
:1054000051490870FFE78FE0069800788006800F0A
:10541000022851D1FFE702980078032108400228B2
:105420004AD1FFE749480088D0B9FFE705990878D5
:10543000C20953425A41D2017F2318408018087094
:1054400005994878012302461A4053425A41FE23E7
:105450001840801848703D4940F2E8300880FFE766
:105460000298C0780007800F02280AD1FFE702984F
:1054700080788009022804D1FFE7354901200870AF
:10548000FFE70198C0788006800F02280DD1FFE762
:105490002F48007848B1FFE72E49782008802C4932
:1054A0000020087028490870FFE705990879CF2285
:1054B00010402030087113E0069800788006800FB5
:1054C00001280BD1FFE70298007803210840022849
:1054D00004D1FFE71C490420087000E0FFE7FFE764
:1054E00022E0069800788006800F01281AD1FFE795
:1054F0000298007803210840022813D1FFE705999C
:1055000008787F221040087005994878FE221040E4
:1055100048700D4900200870059908793022104321
:105520000871FFE700E0FFE708B07047A80200201D
:10553000A40200208E0200207C02002088020020AD
:105540009F02002098020020770200206A020020BB
:10555000760200205C02002086B0F4480590F448F2
:105560000490F4480390F4480290F448007800B1A5
:105570004CE1F34800780190042800D944E10199F6
:105580008A0001A08018874600F008B800F042B8F1
:1055900000F05EB800F0A6B800F013B9EA48008841
:1055A00000B3FFE7E7480088D8B9FFE70499087817
:1055B0000207D20F53425A41D200F72318408018F5
:1055C000087004990878C206D20F53425A4112015A
:1055D000EF23184080180870DA4940F2E83008805C
:1055E000FFE716E0059800780321084001280ED156
:1055F000FFE704990878F7221040087004990878AA
:10560000EF2210400870CE490120087000E0FFE74B
:10561000FFE7FAE00598007803210840022815D139
:10562000FFE7039800780321084002280ED1FFE726
:105630000499087808221043087004990878102209
:1056400010430870BE490220087000E0FFE7DCE06C
:105650000598007803210840022815D1FFE7039838
:1056600000780321084001280ED1FFE7049908784B
:10567000F7221040087004990878EF221040087053
:10568000AF49032008702CE00298C0780007800F13
:1056900002280CD1FFE7029880788009022806D101
:1056A000FFE704994878042210434870FFE7039805
:1056B000C0788006800F022812D1FFE70498407856
:1056C0004007C00F60B1FFE79F4978200880049928
:1056D0004878FB2210404870994900200870FFE785
:1056E000FFE792E00598007803210840022853D193
:1056F000FFE7039800780321084002284CD1FFE718
:1057000090480088D8B9FFE7049908780207D20FBB
:1057100053425A41D200F723184080180870049968
:105720000878C206D20F53425A411201EF231840A3
:1057300080180870834940F2E8300880FFE702983B
:10574000C0780007800F02280CD1FFE7029880780C
:105750008009022806D1FFE7049948780422104303
:105760004870FFE70398C0788006800F022812D1A6
:10577000FFE7049840784007C00F60B1FFE7724927
:105780007820088004994878FB22104048706C49C2
:1057900000200870FFE713E0059800780321084017
:1057A00001280BD1FFE70398007803210840022865
:1057B00004D1FFE762490420087000E0FFE7FFE73B
:1057C00023E0059800780321084001281AD1FFE75B
:1057D0000398007803210840022813D1FFE70499B9
:1057E0000878F7221040087004990878EF221040DA
:1057F000087004994878FB221040487050490020F6
:10580000087000E0FFE700E0FFE7FFE74B480078A3
:10581000009040B1FFE70098012822D0FFE70098F0
:1058200002283CD07FE0039800780007800F012811
:1058300015D1FFE7039800780321084002280ED114
:10584000FFE704990878F722104008700499087857
:10585000EF221040087039490120087000E0FFE78E
:1058600062E0039800780007800F012815D1FFE758
:10587000039800780321084001280ED1FFE704991E
:105880000878F7221040087004990878EF22104039
:1058900008702A490220087000E0FFE744E00398FE
:1058A00000780007800F012828D1FFE703980078CF
:1058B00003210840022821D1FFE7E6480088D8B933
:1058C000FFE7049908780207D20F53425A41D200E9
:1058D000F72318408018087004990878C206D20F80
:1058E00053425A411201EF23184080180870D949D9
:1058F00040F2E830088000E0FFE713E0039800780A
:105900000007800F02280BD1FFE7039800780321DE
:105910000840022804D1FFE708490020087000E091
:10592000FFE7FFE700E0FFE706B07047A4020020B2
:105930008E0200209F0200209802002079020020A1
:10594000780200206C0200205C02002088B0B84879
:105950000790B8480690B8480590B8480490B848F1
:105960000390B8480290B8480190B848007800B158
:105970005CE1B74800780090042800D954E1009910
:105980008A0001A08018874600F008B800F042B8ED
:1059900000F063B800F0ABB800F01EB9AE48008864
:1059A00000B3FFE7AB480088D8B9FFE7059908784E
:1059B0000207D20F53425A41D200F72318408018F1
:1059C000087005990878C206D20F53425A41120155
:1059D000EF231840801808709E4940F2E830088094
:1059E000FFE716E0069800780321084001280ED151
:1059F000FFE705990878F7221040087005990878A4
:105A0000EF221040087092490120087000E0FFE783
:105A1000FFE70AE1069800780321084002281BD11D
:105A2000FFE7029800780007800F022814D1FFE7F3
:105A30000599087808221043087005990878102203
:105A400010430870059908793F22104040300871D2
:105A50007F4902200870FFE7E7E0069800780321FD
:105A60000840022815D1FFE7029800780007800F50
:105A700001280ED1FFE705990878F7221040087039
:105A800005990878EF2210400870714903200870CA
:105A90002CE00198C0780007800F02280CD1FFE7A6
:105AA000019880788009022806D1FFE70599487897
:105AB000042210434870FFE70298C0788006800FE8
:105AC000022812D1FFE7059840784007C00F60B167
:105AD000FFE761497820088005994878FB2210404B
